:080000000C9477000C94000041
:100008000C9400000C9400000C9400000C94000068
:100018000C9400000C9400000C9400000C94000058
:100028000C9400000C9400000C9400000C94000048
:100038000C9400000C9400000C9400000C94000038
:100048000C9400000C9400000C94000054656D7032
:100058003D202064656772656500546865204865C1
:1000680061746572206973204F6E0054686520467C
:10007800616E206973204F6E2E2E2E005468652005
:1000880054656D7020697320476F6F6400546F6FFB
:1000980020486F742054656D700001002D4E414E4C
:1000A80000494E46000080C00E0060015400110057
:1000B8006E0162000E007F01540011008D01730073
:1000C8000E009E0154001100AC0184000E00BD0119
:1000D80054000D00CB0195000100DF01A2000200D1
:1000E800E301AE000000F894EE27ECBBF1E0FBBFA3
:1000F800EBBFE5BFF8E1F1BDE1BD8DE0A2E0BB27B4
:10010800ED938A95E9F780E094E0A0E6ED930197F6
:10011800E9F7E0EBF0E085919591009761F0A59102
:10012800B59105901590BF01F00105900D920197CA
:10013800E1F7FB01F0CFEFE5EDBFE4E0EEBFC0E68D
:10014800D1E00C94A700E0E0EBBBEABBE5BBE4BB65
:10015800E2BBEFEFE1BBE0E0E7B9E3E8E6B9A0E135
:100168000E9464020E943202369A349BFECFE4B1A8
:10017800F5B1662777270E94E403A7E2B1E388EC8C
:100188009DE30E946E04E093D801F093D901609337
:10019800DA017093DB010E943D05E0E0EA93ACEDE3
:1001A800B1E00E943E010E94E6020E94EF0268F45C
:1001B8009798959A0E94F602A0E6B1E00E94FD0287
:1001C800AEE6B1E00E94110353C00E94170309F084
:1001D80010F40C94F8000E94E602E0E0F0E06CE114
:1001E80072E40E94010508F00DC09598979A0E9444
:1001F800F602AFE7B1E00E94FD02ADE8B1E00E946F
:10020800110336C00E94E6020E94EF0209F010F4C2
:100218000C9411010E94170308F00DC09598979847
:100228000E94F602AEE9B1E00E94FD02ACEAB1E03C
:100238000E9453021DC00E94E602E0E0F0E060E286
:1002480072E40E94010509F010F40C943A01919AA5
:10025800929AEA93A0E00E942502ADEBB1E00E94D9
:10026800FD02ABECB1E00E94110302C09198929894
:100278007BCFFFCFBA93AA932497E0E0E883E98382
:10028800EA83EFE3EB831A930A93EB85FC85EF3F50
:10029800AFEFFA0739F40E941F03A4EAB0E00E9406
:1002A800D902ABC0EF3FAFE7FA0739F40E941F034A
:1002B800A5EAB0E00E94D902A0C0AC85AA2362F4E6
:1002C800E985FA856B857C850E9478030E94240362
:1002D8000E942903EDE2EC93A885A73010F0E6E030
:1002E800E8871885E12F1150E03039F00E9430037B
:1002F8000E9435030E943C03F5CF0E9441030E94EF
:100308001E040E94240310E0E0E0F0E060E87FE3D0
:100318000E943C030E9441030E94010588F00E944C
:1003280030030E944A030E943C031F5F173238F0D3
:100338000E941F03A9EAB0E00E94D9025EC0EACF7A
:10034800103029F40E942903E0E3EC932CC0E12F3C
:100358001150E03041F10E9430030E943503A0E0C3
:10036800B0E080E09FE30E941E04DF01CB010E9401
:10037800C2020E943C030E9441030E94BC040E94E6
:10038800AB030E2F0E9429030E9451030E943003E1
:100398000E9429050E94E4030E946E040E945703EC
:1003A8000E945C03D4CFE885E03019F10E9429034C
:1003B800EEE2EC93E885E150E887EF5FD1F00E9428
:1003C80057030E944A030E942403E985FA856B8536
:1003D8007C850E94AB030E2F0E9429030E945103C3
:1003E8000E9457030E9429050E94E4030E945C03AF
:1003F800E1CFAE81BF81E0E0EC93198108812D96B1
:100408000895AA93E5B3EF70AE2FE881E07FEA2B59
:10041800E5BB81E08A95F1F7AA9A82E08A95F1F71F
:10042800AA9882E08A95F1F776C0AA93A881E9DFB5
:10043800E881E295E883A881E4DF81E18A95F1F714
:100448006AC0AA93E881F0E0ED51FE4FE081A981EE
:10045800AE0FEBDF5980488022960895A2E00E94F3
:100468006103ACE0E2DFA1E00E946103E0E04E2E10
:100478005E2E0895AA93A881AA3011F0571448F067
:10048800E0E0EA934394A42DDCDFA881AA3009F4C4
:1004980042C05394A89AA881C8DFA8983CC0BA93D0
:1004A800AA931A93A981BA81ED91A983BA831E2FC1
:1004B800E03019F0A12FDEDFF5CF188123960895DB
:1004C800AA93E4B3E06FE4BBA29AA09AA19AAA986F
:1004D800A898A9987880E881E058E093E501E88138
:1004E800E054E093E601A4E1B0E00E946E030E94AC
:1004F80067030E9467030E946703A0E282DF81E22C
:100508008A95F1F7A8E291DFA4E08FDFA5E88DDFF7
:10051800A6E08BDFA3DF219608950E9442057B8128
:100528006A81F981E88177FB770F67FD7160972F02
:100538009E5781F078F0983190F4AA27BB27882736
:1005480008948795B795A7959A95D1F7EA23FB2341
:10055800682305C0E8947727EE27FF2766276F777B
:10056800769508F4606877F9A991B991899199917C
:10057800EA17FB076807790797FB08950E94420569
:100588000E9433050E9491020E94380519F40E94C6
:100598002E0509C0E6F70E942E05A0E0B0E080E82D
:1005A8009FE30E94170424960895BA93AA93E991A9
:1005B800F991A991B991CD0105900D920020E1F72B
:1005C800FC010895A091D801B091D9018091DA0178
:1005D8009091DB010895E0E0F0E060E771E40E94AB
:1005E8000105089591989298E0E0EA93A0E00C94B0
:1005F80025020E945302E6E0EA93A0E00E94250249
:10060800ACEDB1E00E945302A4EFB1E00E946E038A
:10061800E0E0EA93A1E00C9425020E945302A4EFC3
:10062800B1E00C946E03CEDFE0E0F0E060EA71E444
:100638000E9401050895EE81FF81FA93EA930895D7
:10064800E987FA876B877C870895AE81BF81119609
:10065800AE83BF8311970895AA81BB818C819D8148
:100668000895EDECFCEC6CEC7DE30E946E040895BB
:10067800EA83FB836C837D830895EA81FB816C8127
:100688007D81A985BA858B859C850895E0E0F0E099
:1006980060E271E40E946E040895E02FE05DEC933F
:1006A800E02FF0E00895A985BA858B859C8508958B
:1006B8000E9447050E941704C3CF0E941902A3E0B5
:1006C800B0E00C946E03A0E30E94050281E28A95D3
:1006D800F1F70895109639F08AEF90E00197F1F755
:1006E800A8951197C9F7089530976040704009F0B0
:1006F80070580895552342F4503811F4E0FF04C0AF
:100708003196691F791F6BF050E8572711F45F93F2
:10071800CFC05F3F31F0660F000C57956795752F76
:1007280008955F9300200AF0CFC0C8C050E8192E82
:100738001522880F991F9527550F879550E8072E82
:100748000522660F771F7527550F679508956894DA
:1007580001C0E8945F93F2DF703818F07F3F08F427
:10076800A7C056E1571BAAF4519558300EF45930DA
:1007780030F0EFEFFFEF6FEF7FE777F91AC07727D9
:100788005523B9F0EE0FFF1F661F771F5A95D1F753
:1007980010C07727583028F0EF2FF62F672F5850C2
:1007A800F9CF552331F076956795F795E7955A95E2
:1007B800D1F700200AF441D15F910895689401C0EF
:1007C800E894309760407040B1F0002426F0772319
:1007D80012F4009432D1172E7EE1112032F07A956E
:1007E800EE0FFF1F661F111CF9CFEF2FF62F612D9B
:1007F8005F938ADF5F9108954F93AF01FD01DA019E
:10080800AB01BC01CA01402D012C142E4F91089553
:10081800EA0FFB1F681F0895E095F0956095EF5F5C
:10082800FF4F6F4F08955F9381DF903871F150E863
:10083800152604C05F937ADF903839F1703821F1BA
:10084800572F591B2BF112F4D7DFFACF583118F074
:10085800AA27BB278827583028F0AB2FB82F88271E
:100868005850F9CF552329F08695B795A7955A95ED
:10087800D9F7502D512572F0CBDF38F46795F795ED
:10088800E795739513F420C0B7DF3EDF5F910895B5
:10089800D8F7FBCFEA1BFB0B680B51F010F4009460
:1008A800BBDF662392F3EE0FFF1F661F7A95CBF727
:1008B800EE27FF27662777275F910895EFEFFFEF71
:1008C8006FE77FEF5F910895EFEFFFEF6FE77FE747
:1008D8005F9108955F932ADF703851F3903841F3A0
:1008E80001240894791F23F41CF300203AF3ECCF79
:1008F8000F921F932F933F934F93112722279927E6
:10090800689FA0018F9F302D410D591F6B9F300D9F
:10091800411D591F8E9F27D0BF9F25D06A9F23D086
:10092800BE9F1DD0AF9F1BD0AE9F110D291F391F31
:10093800491F591FE32FF42F652F522F4F913F91D5
:100948002F911F910F9066232AF0550FEE1FFF1F5E
:10095800661F02C073954BF2CDDE5F910895100DAE
:10096800211D391F02C0200D311D491F591F08952F
:100978005F93DCDE703821F411200AF49FCFA4CFF6
:10098800903809F495CF01240894970B1BF4D4F3FD
:100998000020F3CF792F1F932F933F934F93112468
:1009A8001127222733274427552790E2AE17BF0780
:1009B8008607410730F0AE1BBF0B860B410B08942E
:1009C80001C08894551F221F331F111CAA1FBB1F6B
:1009D800881F441F9A9551F7F901612D4F913F9156
:1009E8002F911F91662332F0550FEE1FFF1F661FD0
:1009F8007A9543F27FDE5F91089599239AF07723E1
:100A080042F0971748F029F4AE17BF07860720F081
:100A180031F09894889408959894089408951894B7
:100A2800889408957723C2F7971798F3A9F7EA17D8
:100A3800FB07680788F399F3ECCFF09560957095FC
:100A4800E195FF4F6F4F7F4F08956F2F660F660B2D
:100A5800762F0895E881F9816A817B810895A881BC
:100A6800B9818A819B810895E883F9836A837B83AE
:100A780008957A936A93FA93EA9308959A938A93D6
:100A8800BA93AA930895182E862F612D192E972FA1
:100A9800712D1B2EBF2FF12D1A2EAE2FE12D08958B
:00000001FF
