:100000000C945C000C9489000C949B000C94E90007
:100010000C9400000C9400000C9400000C94000060
:100020000C9400000C9400000C9400000C94000050
:100030000C9400000C9400000C9400000C94000040
:100040000C9400000C9400000C94AB000C94000085
:100050000C9400000000000080BE14AE873E00003B
:1000600000000000000000000000000000006F120F
:10007000833A000070410000803E73706565643D06
:1000800000766F6C746167653D0001002D4E414E36
:1000900000494E46000080C00100020054000700E5
:1000A00060017A00090067018100010084018A0073
:1000B0000200880196000000F894EE27ECBBF1E006
:1000C000FBBFEBBFE5BF8DE0A2E0BB27ED938A95B8
:1000D000E9F780E094E0A0E6ED930197E9F7E8E91D
:1000E000F0E085919591009761F0A591B59105900B
:1000F0001590BF01F00105900D920197E1F7FB010A
:10010000F0CFEFE5EDBFE4E0EEBFC0E6D1E00C9448
:10011000F0000E94AE02E0E0F0E863E973E40E94C0
:10012000A20411F008F006C00E94C3020E94BF039F
:100130000E94D00241C00E94AE02E0E0F0E060EA1E
:1001400070E40E94A20430F00E94C3020E94B8032F
:100150000E94D00231C00A921A926A937A938A93CB
:100160009A93AA93BA93EA93FA93EFB7EA930E9409
:10017000D902AAEFB8EC85EE9DE30E94BF030E946E
:10018000E202A0917001B091710180917201909191
:100190007301EBEDFFE069EC70E40E94A20409F04A
:1001A00008F40AC00E94D902ABEDBFE089EC90E4EC
:1001B0000E94B8030E94E202E991EFBFF991E99130
:1001C000B991A99199918991799169911990099021
:1001D0001895EA93EFB7689420F8EFBFE991189566
:1001E000A89784E2A4E0B0E0E6E5F0E00E94D9043C
:1001F000929A939AECE4E3BFE0E0EABBEBBBE8E061
:10020000E7BBE0E0E8BBE4BBE5BBE1BBECE0E2BBA5
:10021000EBE6E3BFE0E0E2BFECBFE2BDEBE0E5BD53
:10022000E0E0E4BDE9EFE3BDE0E8E9BFEBB7E06E95
:10023000EBBFEAE0E5BFE0E0E4BFE0EEEABFA0E14B
:100240000E94800278940E944E02A0E6B1E00E94D3
:100250006F020E94EB020E94F402ECB7F0E00E94F1
:10026000CA040E948503A2E1B3E880E49DE30E94F2
:100270000F04E0937C01F0937D0160937E01709305
:100280007F01E0E0EA93A1E00E944102A7E6B1E02D
:100290000E946F02E0917C01F0917D0160917E01EE
:1002A00070917F010E94F402A4E1B0E00E94150366
:1002B00020FE97C0A0917401B091750180917601E4
:1002C000909177010E94D9020E94B8030E94FE0219
:1002D000A0918301AA2382F4E0918001F091810131
:1002E0006091820170918301ABEDBFE089EC90E4F5
:1002F0000E94BF030E94FE02A0918001B091810183
:100300008091820190918301EFE6F2E163E87AE364
:100310000E945D040E94D4040E94D902E0937401FB
:10032000F093750160937601709377010E94CF047A
:100330000E94EB020E94B803E88FF98F6A8F7B8FCF
:10034000A4E1BEEA87E89EE30E940F047F936F93C7
:10035000FF93EF93EC89FD896E897F89A0E0B0E07F
:1003600080E89EEB0E940F04AF91BF918F919F9107
:100370000E94BF03AC85BD858E859F850E94BF030B
:10038000E88BF98B6A8B7B8BEC87FD876E877F8789
:10039000E88DF98D6A8D7B8DEC8BFD8B6E8B7F8B61
:1003A000AB89AA2312F4E0E019C0A889B9898A8927
:1003B0009B89E0E0F0E060E471E40E94A20410F0A8
:1003C000EEEF0CC0E889F9896A897B89A7E6B5E573
:1003D0008DEA91E40E940F040E944C03ECBFE89464
:1003E00020F831CFFFCFBA93AA93A991B991E9919F
:1003F000F99130962AF4E095F09531966DE26D937F
:10040000E89480E197E20DD088EE93E00AD084E68C
:10041000992707D08AE005D06E2F10D066276C93FD
:1004200008956627E817F90720F06395E81BF90B94
:10043000C9F7662311F416F008956894605D6D9312
:100440000895AA93E5B3EF70AE2FE881E07FEA2B21
:10045000E5BB8DE08A95F1F7AA9A8DE08A95F1F7D0
:10046000AA988DE08A95F1F777C0AA93A881E9DF71
:10047000E881E295E883A881E4DF85E88A95F1F7D1
:100480006BC0AA93E881F0E0E857FE4FE081A981B4
:10049000AE0FEBDF7980688022960895A2E00E947B
:1004A0000703ACE0E2DFA1E00E940703E0E06E2E6C
:1004B0007E2E0895AA93A881AA3011F0791448F0ED
:1004C000E0E0EA936394A62DDCDFA881AA3009F46A
:1004D00043C07394A89AA881C8DFA8983DC0BA9376
:1004E000AA931A93A981BA81ED91A983BA831E2F89
:1004F000E03019F0A12FDEDFF5CF188123960895A3
:10050000AA93E4B3E06FE4BBA29AA09AA19AAA9836
:10051000A898A9989880E881E058E0938A01E8813A
:10052000E054E0938B01A4E1B0E00E9415030E9427
:100530000D030E940D030E940D03A0E282DF88ECF0
:1005400090E00197F1F7A8E290DFA4E08EDFA5E844
:100550008CDFA6E08ADFA2DF219608950A921A9224
:100560006A937A938A939A93AA93BA93EA93FA93A3
:10057000EFB7EA93A0917801B091790180917A0167
:1005800090917B010895E0917801F091790160915B
:100590007A0170917B01A0E0B0E080EA90E40895D8
:1005A000E0937801F093790160937A0170937B0175
:1005B0000895E0917001F091710160917201709164
:1005C00073010895E0937001F093710160937201DB
:1005D000709373010895E0917801F0917901609131
:1005E0007A0170917B0108950E944E03FA93EA9379
:1005F000D2010E94F301D2010C946F02E0938001BA
:10060000F0938101609382017093830108950E94A9
:100610003502A3E0B0E00C941503A0E30E94210290
:1006200088EC90E00197F1F70895109639F080ED8D
:1006300097E00197F1F7A8951197C9F70895552309
:1006400042F4503811F4E0FF04C03196691F791F5D
:100650006BF050E8572711F45F93CFC05F3F31F044
:10066000660F000C57956795752F08955F930020CE
:100670000AF0CFC0C8C050E8192E1522880F991F64
:100680009527550F879550E8072E0522660F771F8F
:100690007527550F67950895689401C0E8945F9396
:1006A000F2DF703818F07F3F08F4A7C056E1571BFF
:1006B000AAF4519558300EF4593030F0EFEFFFEFB7
:1006C0006FEF7FE777F91AC077275523B9F0EE0F60
:1006D000FF1F661F771F5A95D1F710C07727583034
:1006E00028F0EF2FF62F672F5850F9CF552331F010
:1006F00076956795F795E7955A95D1F700200AF416
:1007000041D15F910895689401C0E89430976040AA
:100710007040B1F0002426F0772312F4009432D117
:10072000172E7EE1112032F07A95EE0FFF1F661F23
:10073000111CF9CFEF2FF62F612D5F938ADF5F91A8
:1007400008954F93AF01FD01DA01AB01BC01CA016D
:10075000402D012C142E4F910895EA0FFB1F681FA6
:100760000895E095F0956095EF5FFF4F6F4F089506
:100770005F9381DF903871F150E8152604C05F93D4
:100780007ADF903839F1703821F1572F591B2BF14E
:1007900012F4D7DFFACF583118F0AA27BB278827E1
:1007A000583028F0AB2FB82F88275850F9CF552351
:1007B00029F08695B795A7955A95D9F7502D5125CB
:1007C00072F0CBDF38F46795F795E795739513F4DE
:1007D00020C0B7DF3EDF5F910895D8F7FBCFEA1B5B
:1007E000FB0B680B51F010F40094BBDF662392F30F
:1007F000EE0FFF1F661F7A95CBF7EE27FF276627C0
:1008000077275F910895EFEFFFEF6FE77FEF5F913D
:100810000895EFEFFFEF6FE77FE75F9108955F9334
:100820002ADF703851F3903841F301240894791F7E
:1008300023F41CF300203AF3ECCF0F921F932F9375
:100840003F934F93112722279927689FA0018F9FDD
:10085000302D410D591F6B9F300D411D591F8E9F2B
:1008600027D0BF9F25D06A9F23D0BE9F1DD0AF9FAA
:100870001BD0AE9F110D291F391F491F591FE32F90
:10088000F42F652F522F4F913F912F911F910F9071
:1008900066232AF0550FEE1FFF1F661F02C07395D7
:1008A0004BF2CDDE5F910895100D211D391F02C05E
:1008B000200D311D491F591F08955F93DCDE7038EC
:1008C00021F411200AF49FCFA4CF903809F495CFDA
:1008D00001240894970B1BF4D4F30020F3CF792F55
:1008E0001F932F933F934F931124112722273327D0
:1008F0004427552790E2AE17BF078607410730F01F
:10090000AE1BBF0B860B410B089401C08894551F8A
:10091000221F331F111CAA1FBB1F881F441F9A953B
:1009200051F7F901612D4F913F912F911F9166234E
:1009300032F0550FEE1FFF1F661F7A9543F27FDEE0
:100940005F91089599239AF0772342F0971748F022
:1009500029F4AE17BF07860720F031F098948894E9
:100960000895989408940895189488940895772386
:10097000C2F7971798F3A9F7EA17FB07680788F3F8
:1009800099F3ECCFF09560957095E195FF4F6F4F1F
:100990007F4F08956F2F660F660B762F0895A881FD
:1009A000B9818A819B810895E883F9836A837B8377
:1009B0000895AC0FBD1F05900D928A95E1F708953B
:00000001FF
