:060000000C9401010C94B8
:1000060079010C94B2010C9400000C9495010C94A7
:1000160000000C9400000C9400000C9400000C945A
:1000260084010C9400000C942E010C9400000C9496
:1000360000000C9400000C9400000C9400000C943A
:1000460000000C9400000C9400000C940000102793
:10005600E80364000A00010000100001100001001E
:100066003E526561647920746F20526563697665D6
:100076002000202A2A56657279204C6F6E672A2A3C
:100086005361746172742E2E2E2E006D6F31206FA7
:100096006E203235006D6F31206F6E203530006D69
:1000A6006F31206F6E203735006D6F31206F6E20F7
:1000B600313030006D6F31206377006D6F31206312
:1000C6006377006D6F31206F6666006D6F32206F4B
:1000D6006E203235006D6F32206F6E203530006D28
:1000E6006F32206F6E203735006D6F32206F6E20B5
:1000F600313030006D6F32206F6666006D6F3220D2
:100106006377006D6F3220636377004D6F31204F48
:100116006E204357004D6F31204F6E2043435700EA
:100126004D6F31204F66660052504D004D6F3220A4
:100136004F6E204357004D6F32204F6E204343577A
:10014600004D6F32204F6666000080C001002D4EC4
:10015600414E00494E4600001100410266000E0065
:10016600530278000B00600186000A006B019100C3
:100176000A0075019B000A007F01A5000B0089019A
:10018600AF0007009401BA0008009B01C1000800F7
:10019600A301C9000A00AB01D1000A00B501DB00CA
:1001A6000A00BF01E5000B00C901EF000800D401F9
:1001B600FA000700DC0102010800E30109010A0058
:1001C600EB0111010B00F5011B01080000022601DD
:1001D600040008022E010A000C0232010B0016026E
:1001E6003C01080021024701040029022E010200F9
:1001F600620250010100690252010000F894EE27E4
:10020600ECBBF1E0FBBFEBBFE5BF8DE0A2E0BB2797
:10021600ED938A95E9F780E094E0A0E6ED930197E7
:10022600E9F7EEE5F1E085919591009761F0A591EA
:10023600B59105901590BF01F00105900D920197BB
:10024600E1F7FB01F0CFEFE5EDBFE4E0EEBFC0E67E
:10025600D1E00C94C101AA93EA93FA93EFB7EA931B
:10026600ECB1E0933102BDD2A0913102A083A091FE
:100276003202AB3030F4E0913202EF5FE0933202AB
:100286001DC0E0E0E0933202B2D2E03051F05D9B57
:10029600FECFADD2ECB9E0913402EF5FE0933402C9
:1002A600F3CFA5D2E03051F45D9BFECFEDE0ECB983
:1002B600ECB1E0933102E0E0E0933402A091310228
:1002C600AD3071F4E0E0E093320298D2E03029F0EC
:1002D6005D9BFECF93D299D2F8CFE0E0E093330254
:1002E600E991EFBFF991E991A991189595D2ECB7EB
:1002F600E03021F0F20131962F0102C0442455244A
:1003060038C08FD2F40131964F01E4EFF1E0E815E1
:10031600F90539F4F2018FD26F014424552488245B
:10032600992413C07ED2F50131965F01E4EFF1E026
:10033600EA15FB0551F4F3017ED2E0932D02F0930A
:100346002E0266247724AA24BB24E991EFBFF991F3
:10035600E991B991A99199911990099018955CD252
:10036600E3B5E03021F0F30131963F0102C0662487
:100376007724E991EFBFF991E9911895E8ECE7BB8D
:10038600EFE0E4BBE0E8E1BBECE0E2BBE0ECEBBFB6
:10039600EAE0E5BFA0E1B0D1A0E6B1E08CD1A8EEDD
:1003A600B3E07CD253D1EBE6E3BFECE6E5BDE1E496
:1003B600E9BFE0E0E2BFE0BDE3E3E9B9E8E9EAB9B5
:1003C600E6E8E0BD1BD2E03029F05D9BFECF16D2F9
:1003D6001CD2F8CFE0E0E09333027894A4E6B0E0D4
:1003E6005DD234D1FED1A0E0A0832DD2ABE6B1E040
:1003F600E4D1E03011F4ECE3ECBF25D2A5E7B1E09F
:10040600DCD1E03011F4EFE7ECBF1DD2AFE7B1E08D
:10041600D4D1E03011F4EEEBECBF15D2A9E8B1E08F
:10042600CCD1E03011F4EFEFECBF0DD2A4E9B1E08E
:10043600C4D1E03019F4AB98AA9A08C004D2ABE94B
:10044600B1E0BBD1E03011F4AB9AAA98FCD1A3EA93
:10045600B1E0B3D1E03029F4E0E0ECBFAB98AA9864
:10046600C798F1D1ABEAB1E0A8D1E03011F4ECE3E2
:10047600E3BDE9D1A5EBB1E0A0D1E03011F4EFE79F
:10048600E3BDE1D1AFEBB1E098D1E03011F4EEEB92
:10049600E3BDD9D1A9ECB1E090D1E03011F4EFEF92
:1004A600E3BDD1D1A4EDB1E088D1E03029F4A8981C
:1004B600A998E0E0E3BDC698C6D1ACEDB1E07DD128
:1004C600E03019F4A89AA99808C0BDD1A3EEB1E00E
:1004D60074D1E03011F4A898A99AECB7E23040F054
:1004E600A0E0AB99A1E0E0E0AA9BE1E0EA1709F001
:1004F60001C0C79AE3B5E23040F0A0E0A899A1E0B8
:10050600E0E0A99BE1E0EA1709F001C0C69AE0E045
:10051600EA93A0E089D0ECB7E23010F0AA9901C0C6
:1005260003C0ABEEB1E00BC0ECB7E23010F0AB9914
:1005360001C003C0A5EFB1E002C0A0E0B2E0BBD0AD
:10054600EBE0EA93A0E070D0DA92CA9281D185D12D
:10055600A0E06AD0A8E0B2E0AED0E0E0EA93A1E085
:1005660063D0E3B5E23010F0A89901C003C0ACE057
:10057600B2E00BC0E3B5E23010F0A99901C003C0A8
:10058600A6E1B2E002C0A1E2B2E095D0EBE0EA93C8
:10059600A1E04AD0E0912D02F0912E02FA93EA935F
:1005A60057D15BD1A1E040D0A9E2B2E084D016CF0A
:1005B600FFCFFFE0FA95F1F70895AAB3AF70AABB93
:1005C600D99AD898F6DFDA9AF4DFA9B3DA98F1DF88
:1005D600DA9AEFDFDA98A7FDF5CF0895A07FAB2B67
:1005E600ABBBDA9AE6DFDA98E4DF0895AA93D998E6
:1005F600AAB3A76FAABBBBB3BF70A881EFDFA88160
:10060600A295ECDFD99A0C94B003DA9AD2DFE9B35B
:10061600DA98CFDFE07F0895CCDFF7DFAE2FF5DF86
:10062600D998E295EA2B0895AA93C7DFE881F0E00E
:10063600EE59FD4FE081A981AE0FD8DFE981E09345
:100646006602E881E093670222960895B6DFA2E08B
:10065600CDDFB3DFACE0CADFB0DFA1E0C7DFE0E0AB
:10066600E0936702E09366020895AA93EF93FF93DF
:10067600A8816894AA3039F0E894E0916802A091C4
:100686006602AE1758F0E0916702EF5FE0936702EB
:10069600E0E0EA93A0916702C7DF4EF0E0916602C0
:1006A600EF5FE093660289DFD89AA8819FDFFF910A
:1006B600EF910C94B003BA93AA931A93A981BA81C5
:1006C600ED91A983BA831E2FE03019F0A12FCDDF5B
:1006D600F5CF188123960895AA27BB271197F1F71E
:1006E6000895AA93D998AAB3A76FAABBBBB3BF7044
:1006F600A88174DFD99A31C0AA93DA98D898E8818C
:10070600E0936802E058E0936402E881E054E093E5
:100716006502E2DFA0E3E5DFDFDFA0E3E2DFDCDFA7
:10072600A0E3DFDFD9DFA0E2DCDFD6DFA8E25EDF11
:10073600D3DFA4E05BDFD0DFA5E858DFCDDFAAB3C7
:10074600AF70AABBD99A68DFE53011F0E0E005C0CA
:1007560034DFA6E04BDF7ADFE1E021960895BA9315
:10076600AA93A991B991E991F99130962AF4E09565
:10077600F09531966DE26D93E89480E197E20DD0A5
:1007860088EE93E00AD084E6992707D08AE005D060
:100796006E2F10D066276C9308956627E817F90721
:1007A60020F06395E81BF90BC9F7662311F416F0E0
:1007B60008956894605D6D930895BA93AA93E9913C
:1007C600F991A991B9916D917191671721F46623F9
:1007D600D1F7EE270895671BE1F3E1E008F4E25054
:1007E6000895E0913202F0E0EB5CFD4F0895E09150
:1007F6003402F0E0ED5AFD4FE0810895E0913302B6
:10080600F0E0EF5BFD4FE0810895ECB9E091330233
:10081600EF5FE09333020895EA93FA93EFB7EA9312
:1008260008950A921A929A93AA93BA93EA93FA931C
:10083600EFB7EA930895ACE3B0E015D0DF01E4E149
:10084600F0E019D00895E5E3F2E0FA93EA9308950B
:10085600A0912F02B0913002089581DFF9DF2BDFDE
:10086600EDE0EA930895FA9FF02DEB9FF00DEA9FD5
:10087600E02DF10D08950024112490E1AA0FBB1F6D
:10088600001C111C0E1A1F0A18F40E0E1F1E01C0A2
:10089600A1609A9599F7FD01D0010895109639F057
:1008A600A89580ED97E00197F1F71197C9F708959C
:00000001FF
