:0E0000000C9454000C9484000C94C2000C94D8
:10000E0000000C9400000C9400000C9400000C9462
:10001E0000000C9400000C9400000C9400000C9452
:10002E0000000C9400000C9400000C9400000C9442
:10003E0000000C9400000C9400000C9400000C9432
:10004E0000000C9400000000204243757272656E31
:10005E007420543D2020202025007265717569732F
:10006E0069746520543D20202020250001002D4E6E
:10007E00414E00494E46000080C0040086015400E7
:10008E0010006001580012007001680001008D011F
:10009E007A000200910186000000F894EE27ECBB76
:1000AE00F1E0FBBFEBBFE5BFF8E1F1BDE1BD8DE0D7
:1000BE00A2E0BB27ED938A95E9F780E094E0A0E6F5
:1000CE00ED930197E9F7E8E8F0E0859195910097B7
:1000DE0061F0A591B59105901590BF01F0010590C5
:1000EE000D920197E1F7FB01F0CFEFE5EDBFE4E0F4
:1000FE00EEBFC0E6D1E00C9403010A921A926A9305
:10010E007A938A939A93AA93BA93EA93FA93EFB750
:10011E00EA93A0918601B091870180918801909118
:10012E008901E0E0F0E068EC72E40E946C05B0F446
:10013E00E0918601F09187016091880170918901AB
:10014E00A0E0B0E080E89FE30E948904E09386017E
:10015E00F09387016093880170938901E991EFBF55
:10016E00F991E991B991A9919991899179916991B1
:10017E001990099018950A921A926A937A938A9313
:10018E009A93AA93BA93EA93FA93EFB7EA93A0914C
:10019E008601B09187018091880190918901E0E0FC
:1001AE00F0E06CE072E40E946C0509F010F40C941F
:1001BE00F600E0918601F0918701609188017091BF
:1001CE008901A0E0B0E080E89FE30E948204E09302
:1001DE008601F09387016093880170938901E991FC
:1001EE00EFBFF991E991B991A9919991899179917D
:1001FE006991199009901895889AECE0E2BBEFE0AE
:10020E00E5BFE0ECEBBFE0E0E7B9E3E8E6B9A4E177
:10021E000E9455030E9406037894369A349BFECFB3
:10022E00E4B1F5B1662777270E944F04A7E2B1E348
:10023E0088EC9DE30E94D904E0938201F093830140
:10024E006093840170938501E0918601F09187019E
:10025E006091880170918901A0918201B091830112
:10026E0080918401909185010E946C0519F010F027
:10027E000C944301909A01C09098E0918201F09104
:10028E00830160918401709185010E94A805E0E0D0
:10029E00EA93AAE8B1E00E948A01E0E0EA93A0E0C6
:1002AE000E94F602A0E6B1E00E943303EAE0EA9370
:1002BE00A0E00E94F602AAE8B1E00E943303E091AA
:1002CE008601F091870160918801709189010E94E9
:1002DE00A805E0E0EA93AAE8B1E00E948A01E0E016
:1002EE00EA93A1E00E94F602A0E7B1E00E94330378
:1002FE00EDE0EA93A1E00E94F602AAE8B1E00E94C6
:10030E0033038BCFFFCFBA93AA932497E0E0E88311
:10031E00E983EA83EFE3EB831A930A93EB85FC857B
:10032E00EF3FAFEFFA0749F4EE81FF81FA93EA93BC
:10033E00ACE7B0E00E94D6030EC1EF3FAFE7FA077D
:10034E0049F4EE81FF81FA93EA93ADE7B0E00E94A3
:10035E00D60301C1AC85AA2392F4E985FA856B8593
:10036E007C850E94E303E987FA876B877C87AE81E1
:10037E00BF811196AE83BF831197EDE2EC93A885F2
:10038E00A73010F0E6E0E8871885E12F1150E03035
:10039E0079F0AA81BB818C819D81EDECFCEC6CEC3B
:1003AE007DE30E94D904EA83FB836C837D83EDCFCA
:1003BE00EA81FB816C817D81A985BA858B859C85BF
:1003CE000E948904E987FA876B877C8710E0E0E05A
:1003DE00F0E060E87FE3EA83FB836C837D83EA8150
:1003EE00FB816C817D81A985BA858B859C850E9458
:1003FE006C05D8F0AA81BB818C819D81E0E0F0E094
:10040E0060E271E40E94D904EA83FB836C837D83EE
:10041E001F5F173248F0EE81FF81FA93EA93A1E84D
:10042E00B0E00E94D60397C0DACF103049F4AE8107
:10043E00BF811196AE83BF831197E0E3EC9349C061
:10044E00E12F1150E03011F40C947002AA81BB819F
:10045E008C819D81EDECFCEC6CEC7DE30E94D9046B
:10046E00A0E0B0E080E09FE30E948904DF01CB01B1
:10047E000E94BF03EA83FB836C837D83A985BA85C3
:10048E008B859C850E9427050E9416040E2FAE8137
:10049E00BF811196AE83BF831197E02FE05DEC9381
:1004AE00E02FF0E0AA81BB818C819D810E94940592
:1004BE000E944F040E94D904A985BA858B859C851C
:1004CE000E94B2050E948204E987FA876B877C87B7
:1004DE00B7CFE885E03009F43AC0AE81BF811196FE
:1004EE00AE83BF831197EEE2EC93E885E150E88787
:1004FE00EF5F69F1A985BA858B859C85E0E0F0E018
:10050E0060E271E40E94D904E987FA876B877C87E1
:10051E000E9416040E2FAE81BF811196AE83BF834B
:10052E001197E02FE05DEC93E02FF0E0A985BA85FE
:10053E008B859C850E9494050E944F040E94B205F3
:10054E000E948204E987FA876B877C87CECFAE81C3
:10055E00BF81E0E0EC93198108812D960895FFE0AC
:10056E00FA95F1F70895A4B3AF70A4BBA99AA89811
:10057E00F6DFAA9AF4DFA3B3AA98F1DFAA9AEFDF07
:10058E00AA98A7FDF5CF0895A07FAB2BA5BBAA9A7D
:10059E000E94B602AA980E94B6020895AA93A9983C
:1005AE00A4B3A76FA4BBB5B3BF70A881EDDFA881BC
:1005BE00A295EADFA99A0C948C03AA9A0E94B6021D
:1005CE00E3B3AA980E94B602E07F08950E94B60295
:1005DE00F4DFAE2FF2DFA998E295EA2B0895AA93E5
:1005EE000E94BA02E881F0E0EF56FE4FE081A98149
:1005FE00AE0F0E94D50259804880229608950E941F
:10060E00BA02A2E00E94D5020E94BA02ACE00E9499
:10061E00D5020E94BA02A1E00E94D502E0E04E2E61
:10062E005E2E0895AA93EF93FF93A8816894AA3043
:10063E0019F0E894571430F04394E0E0EA93A42DB7
:10064E00CEDF36F053948FDFA89AA8810E94D50290
:10065E00FF91EF910C948C03BA93AA931A93A981EC
:10066E00BA81ED91A983BA831E2FE03019F0A12F24
:10067E00D9DFF5CF188123960895AA27BB271197A6
:10068E00F1F70895AA93A998A4B3A76FA4BBB5B325
:10069E00BF70A8810E94CB02A99A37C0AA93AA98CC
:1006AE00A8987880E881E058E0939301E881E054BF
:1006BE00E0939401E2DFA0E3E5DFDFDFA0E3E2DF1A
:1006CE00DCDFA0E3DFDFD9DFA0E2DCDFD6DFA8E2EC
:1006DE000E94D502D2DFA4E00E94D502CEDFA5E8AB
:1006EE000E94D502CADFA4B3AF70A4BBA99A0E9420
:1006FE00ED02E53011F0E0E008C00E94BA02A6E07B
:10070E000E94D5020E940603E1E0219608950E9400
:10071E00AD057B816A81F981E88177FB770F67FDF3
:10072E007160972F9E5781F078F0983190F4AA2738
:10073E00BB27882708948795B795A7959A95D1F7E3
:10074E00EA23FB23682305C0E8947727EE27FF27CB
:10075E0066276F77769508F4606877F9A991B99155
:10076E0089919991EA17FB076807790797FB089516
:10077E000E94AD050E949E050E948E030E94A30555
:10078E0019F40E94990509C0E6F70E949905A0E0A8
:10079E00B0E080E89FE30E94820424960895BA9305
:1007AE00AA93E991F991A991B991CD0105900D9274
:1007BE000020E1F7FC01089530976040704009F089
:1007CE0070580895552342F4503811F4E0FF04C0D8
:1007DE003196691F791F6BF050E8572711F45F931C
:1007EE00CFC05F3F31F0660F000C57956795752FA0
:1007FE0008955F9300200AF0CFC0C8C050E8192EAC
:10080E001522880F991F9527550F879550E8072EAB
:10081E000522660F771F7527550F67950895689403
:10082E0001C0E8945F93F2DF703818F07F3F08F450
:10083E00A7C056E1571BAAF4519558300EF4593003
:10084E0030F0EFEFFFEF6FEF7FE777F91AC0772702
:10085E005523B9F0EE0FFF1F661F771F5A95D1F77C
:10086E0010C07727583028F0EF2FF62F672F5850EB
:10087E00F9CF552331F076956795F795E7955A950B
:10088E00D1F700200AF441D15F910895689401C018
:10089E00E894309760407040B1F0002426F0772342
:1008AE0012F4009432D1172E7EE1112032F07A9597
:1008BE00EE0FFF1F661F111CF9CFEF2FF62F612DC4
:1008CE005F938ADF5F9108954F93AF01FD01DA01C7
:1008DE00AB01BC01CA01402D012C142E4F9108957D
:1008EE00EA0FFB1F681F0895E095F0956095EF5F86
:1008FE00FF4F6F4F08955F9381DF903871F150E88D
:10090E00152604C05F937ADF903839F1703821F1E3
:10091E00572F591B2BF112F4D7DFFACF583118F09D
:10092E00AA27BB278827583028F0AB2FB82F882747
:10093E005850F9CF552329F08695B795A7955A9516
:10094E00D9F7502D512572F0CBDF38F46795F79516
:10095E00E795739513F420C0B7DF3EDF5F910895DE
:10096E00D8F7FBCFEA1BFB0B680B51F010F4009489
:10097E00BBDF662392F3EE0FFF1F661F7A95CBF750
:10098E00EE27FF27662777275F910895EFEFFFEF9A
:10099E006FE77FEF5F910895EFEFFFEF6FE77FE770
:1009AE005F9108955F932ADF703851F3903841F3C9
:1009BE0001240894791F23F41CF300203AF3ECCFA2
:1009CE000F921F932F933F934F931127222799270F
:1009DE00689FA0018F9F302D410D591F6B9F300DC9
:1009EE00411D591F8E9F27D0BF9F25D06A9F23D0B0
:1009FE00BE9F1DD0AF9F1BD0AE9F110D291F391F5B
:100A0E00491F591FE32FF42F652F522F4F913F91FE
:100A1E002F911F910F9066232AF0550FEE1FFF1F87
:100A2E00661F02C073954BF2CDDE5F910895100DD7
:100A3E00211D391F02C0200D311D491F591F089558
:100A4E005F93DCDE703821F411200AF49FCFA4CF1F
:100A5E00903809F495CF01240894970B1BF4D4F326
:100A6E000020F3CF792F1F932F933F934F93112491
:100A7E001127222733274427552790E2AE17BF07A9
:100A8E008607410730F0AE1BBF0B860B410B089457
:100A9E0001C08894551F221F331F111CAA1FBB1F94
:100AAE00881F441F9A9551F7F901612D4F913F917F
:100ABE002F911F91662332F0550FEE1FFF1F661FF9
:100ACE007A9543F27FDE5F91089599239AF077230A
:100ADE0042F0971748F029F4AE17BF07860720F0AB
:100AEE0031F09894889408959894089408951894E1
:100AFE00889408957723C2F7971798F3A9F7EA1702
:100B0E00FB07680788F399F3ECCFF0956095709525
:100B1E00E195FF4F6F4F7F4F08956F2F660F660B56
:100B2E00762F0895E881F9816A817B810895A881E5
:100B3E00B9818A819B810895E883F9836A837B83D7
:100B4E0008957A936A93FA93EA9308959A938A93FF
:100B5E00BA93AA930895182E862F612D192E972FCA
:100B6E00712D1B2EBF2FF12D1A2EAE2FE12D0895B4
:00000001FF
