:0A0000000C9453000C9480000C9443
:10000A0000000C9400000C9400000C9400000C9466
:10001A0000000C9400000C9400000C9400000C9456
:10002A0000000C9400000C9400000C9400000C9446
:10003A0000000C9400000C9400000C9400000C9436
:10004A0000000C9400000C9400001027E8036400E0
:10005A000A000100001000011000010000006661A2
:10006A0073743D00766F6C746167653D000080C0F3
:10007A0001002D4E414E00494E460000010002008B
:10008A006600060060016800090066016E00020051
:10009A0073017800010077017A000000F894EE27D6
:1000AA00ECBBF1E0FBBFEBBFE5BF8DE0A2E0BB27F5
:1000BA00ED938A95E9F780E094E0A0E6ED93019745
:1000CA00E9F7E6E8F0E085919591009761F0A5914E
:1000DA00B59105901590BF01F00105900D92019719
:1000EA00E1F7FB01F0CFEFE5EDBFE4E0EEBFC0E6DC
:1000FA00D1E00C9481001895929AE0E4EBBFE2E01B
:10010A00E5BF7894A0E1CBD0809902C020FE01C05F
:10011A000CC0F7D0E0E0F0E066E174E4A7D118F48F
:10012A00F9D055D104D1689420F8819902C020FEF3
:10013A0001C008C0E6D004D11CF4ECD041D1F7D0FC
:10014A00689420F8809B04C0819B02C020FC01C0F7
:10015A0002C0E89420F85CD0A0E6B1E07FD0E7E0E6
:10016A00EA93A0E047D0A6E6B1E078D0EAE0EA93C5
:10017A00A1E040D0A8EEB3E099D1C6CFFFCFFFE00F
:10018A00FA95F1F70895A4B3AF70A4BBA99AA898F9
:10019A00F6DFAA9AF4DFA3B3AA98F1DFAA9AEFDFEF
:1001AA00AA98A7FDF5CF0895A07FAB2BA5BBAA9A65
:1001BA00E6DFAA98E4DF0895AA93A998A4B3A76FE3
:1001CA00A4BBB5B3BF70A881EFDFA881A295ECDF0D
:1001DA00A99A0C948401AA9AD2DFE3B3AA98CFDF32
:1001EA00E07F0895CCDFF7DFAE2FF5DFA998E2951F
:1001FA00EA2B0895AA93C7DFE881F0E0ED58FE4F95
:10020A00E081A981AE0FD8DF99808880229608956F
:10021A00BADFA2E0D1DFB7DFACE0CEDFB4DFA1E026
:10022A00CBDFE0E08E2E9E2E0895AA93EF93FF93E4
:10023A00A8816894AA3019F0E8949B1430F083944A
:10024A00E0E0EA93A82DD6DF2EF093949CDFA89ADB
:10025A00A881B2DFFF91EF910C948401BA93AA931B
:10026A001A93A981BA81ED91A983BA831E2FE0302E
:10027A0019F0A12FDADFF5CF188123960895AA275E
:10028A00BB271197F1F70895AA93A998A4B3A76F6A
:10029A00A4BBB5B3BF70A88187DFA99A30C0AA935F
:1002AA00AA98A898B880E881E058E0937501E88197
:1002BA00E054E0937601E3DFA0E3E6DFE0DFA0E3CA
:1002CA00E3DFDDDFA0E3E0DFDADFA0E2DDDFD7DFB7
:1002DA00A8E272DFD4DFA4E06FDFD1DFA5E86CDF2C
:1002EA00CEDFA4B3AF70A4BBA99A7CDFE53011F0CE
:1002FA00E0E005C048DFA6E05FDF8ADFE1E02196A3
:10030A000895A0916F01B09170018091710190914F
:10031A0072010895E0916F01F0917001609171018D
:10032A0070917201A0E0B0E080EA90E40895E09351
:10033A006F01F093700160937101709372010895D7
:10034A0000240A160B0608060906089550E85727DE
:10035A0011F45F937AC05F3F31F0660F000C579536
:10036A006795752F08955F9300200AF079C072C0CF
:10037A0050E8192E1522880F991F9527550F879532
:10038A0050E8072E0522660F771F7527550F6795C8
:10039A0008954F93AF01FD01DA01AB01BC01CA0117
:1003AA00402D012C142E4F910895EA0FFB1F681F50
:1003BA000895E095F0956095EF5FFF4F6F4F0895B0
:1003CA005F93D6DF903871F150E8152604C05F9329
:1003DA00CFDF903839F1703821F1572F591B2BF1A3
:1003EA0012F4D7DFFACF583118F0AA27BB2788278B
:1003FA00583028F0AB2FB82F88275850F9CF5523FB
:10040A0029F08695B795A7955A95D9F7502D512574
:10041A0072F0CBDF38F46795F795E795739513F487
:10042A001FC0B7DF93DF5F910895D8F7FBCFEA1BB0
:10043A00FB0B680B51F010F40094BBDF662392F3B8
:10044A00EE0FFF1F661F7A95CBF7EE27FF27BF0136
:10045A005F910895EFEFFFEF6FE77FEF5F910895E8
:10046A00EFEFFFEF6FE77FE75F91089599239AF027
:10047A00772342F0971748F029F4AE17BF0786078B
:10048A0020F031F0989488940895989408940895E7
:10049A001894889408957723C2F7971798F3A9F7C1
:1004AA00EA17FB07680788F399F3ECCF109639F03F
:1004BA00A89580ED97E00197F1F71197C9F708958C
:00000001FF
