:020000000C945E
:100002002A000C9400000C9400000C9400000C9444
:1000120000000C9400000C9400000C9400000C945E
:1000220000000C9400000C9400000C9448000C9406
:1000320000000C9400000C9400000C9400000C943E
:1000420000000C9400000C9400000C9400000C942E
:100052000000F894EE27ECBBF1E0FBBFEBBFE5BF7D
:10006200F8E1F1BDE1BD8DE0A2E0BB27ED938A95F9
:10007200E9F780E094E0A0E6ED930197E9F7EFE578
:10008200EDBFE4E0EEBFC0E6D1E00C944A005CB004
:100092001895EFEFE7BBE0E2E1BBE1E8EFBDEBE093
:1000A200EEBDE0E0EDBDECBDE7BDE6BDEBBDEABDFA
:1000B200E9BDE8BDE9BFEBB9E0E9EAB9E6E8E0BDD0
:1000C200E0E0E0BDE3E3E9B97894E0E0EBBDEFE71F
:1000D200EABDEAEAE51510F4E0E002C0E52DE0959C
:1000E200E8BBE0E0EBBDEAEAE51528F4E0E0F0E089
:1000F200FBBDEABD03C0EAEAE519EABDEACFFFCFDC
:00000001FF
