:080000000C9438000C94680018
:100008000C9471000C9400000C947B000C9400007C
:100018000C9400000C9400000C9400000C94000058
:100028000C9400000C9400000C9400000C94000048
:100038000C9400000C9400000C9400000C94000038
:100048000C9400000C9400000C9400003F065B4FD9
:10005800666D7C077F6F0000000C0A006001540089
:10006800040006005E000000F894EE27ECBBF1E007
:10007800FBBFEBBFE5BFF8E1F1BDE1BD8DE0A2E05C
:10008800BB27ED938A95E9F780E094E0A0E6ED932D
:100098000197E9F7E2E6F0E085919591009761F024
:1000A800A591B59105901590BF01F00105900D92AD
:1000B8000197E1F7FB01F0CFEFE5EDBFE4E0EEBF1C
:1000C800C0E6D1E00C949600EA93EFB7EA93639404
:1000D800ECE3E61509F4662421C0EA93EFB7EA9346
:1000E8009394EDE0E91511F4E1E09E2E17C0EA9330
:1000F800EFB7EA93A89B02C0A89801C0A89A739486
:10010800ECE3E71559F463947724E61539F466248B
:100118009394EDE0E91511F4E1E09E2EE991EFBF2B
:10012800E9911895EFEFEABBEFE0E7BBA09AECE0A6
:10013800E2BBE5E0E5BDE0E4E9BFE8E0E2BDEFE011
:10014800E5BFE0ECEBBF7894A62D21D0EEE0E8BB4C
:10015800E52D24D0A62D2BD0EDE0E8BBE42D1ED054
:10016800A92D15D0EBE0E8BBE1E0E51511F4E6E0D8
:1001780001C0E0E0EBBBA2E0B0E00E94E200A92DE4
:1001880016D0E7E0E8BBE42D09D0DECFFFCFB0E022
:10019800EAE0F0E00E9403015E2E0895F0E0E05AE4
:1001A800FE4FE081EBBBA2E0B0E00C94E200BB277D
:1001B800EAE0F0E00E9408014E2E0895109639F00A
:1001C8008AEF90E00197F1F7A8951197C9F708957C
:1001D800F195E195F04008950024112490E1AA0FCB
:1001E800BB1F001C111C0E1A1F0A18F40E0E1F1E2E
:1001F80001C0A1609A9599F7FD01D001089512D028
:10020800EBDF0EF4E5DF0895E894B7FF04C0A0958E
:10021800B09511966894F7FDDBDFDEDFFD010EF483
:10022800D7DF0895E894F7FF02C0D2DF6894B7FFDC
:1002380006C0A095B095119600F8039400FA0895A9
:00000001FF
