:060000000C9447000C9473
:1000060000000C9400000C9400000C9400000C946A
:1000160000000C9400000C9400000C9400000C945A
:1000260000000C9400000C9400000C9484000C94C6
:1000360000000C9400000C9400000C9400000C943A
:1000460000000C9400000C9400000C9400000000CA
:100056004D6963726F636F74726F6C6C6572004189
:10006600746D6C650041746D6567613136000F0013
:100076006001560006006F016500090075016B00FE
:100086000100050054000000F894EE27ECBBF1E0F7
:10009600FBBFEBBFE5BFF8E1F1BDE1BD8DE0A2E03E
:1000A600BB27ED938A95E9F780E094E0A0E6ED930F
:1000B6000197E9F7E4E7F0E085919591009761F003
:1000C600A591B59105901590BF01F00105900D928F
:1000D6000197E1F7FB01F0CFEFE5EDBFE4E0EEBFFE
:1000E600C0E6D1E00C94D000BA93AA93E981F070EF
:1000F600E0BDE881E9B9E8E3EAB9E6E8E0BD2296C1
:100106000895EA93FA93EFB7EA93662061F06A944A
:10011600E72D7394F0E0E258FE4FE081ECB9E4E19C
:10012600E71509F47724E991EFBFF991E99118955C
:10013600AA93F894662029F4A0E05D99A1E0A03086
:1001460069F4E42D4394F0E0E258FE4FA881A083C1
:10015600E4E1E41509F44424639402C0E881ECB9AF
:10016600789421960895BA93AA931A9310E0A981D8
:10017600BA81EE27A10FBE1FEC91E03049F0A981AC
:10018600BA81EE27A10FBE1FAC91D2DF1F5FEFCF62
:10019600ADE0CEDF188123960895E7E0EBBBA9E139
:1001A600B0E0A2DF7894A0E0C899A1E0A03019F4ED
:1001B600E0E0E51509F003C0A0E6B1E025D0A0E037
:1001C600C999A1E0A03019F4E0E0E51509F003C0F3
:1001D600AFE6B1E019D0A0E0CA99A1E0A03019F4C9
:1001E600E0E0E51509F003C0A5E7B1E00DD0C89B36
:1001F60007C0C99B05C0CA9B03C0E1E0E51509F02D
:1002060001C05524D0CFFFCFAEDFE1E05E2E0895CA
:00000001FF
