:0A0000000C948E000C94BE000C94CA
:10000A00CA000C9400000C9400000C9400000C949C
:10001A00EE000C9400000C9400000C9400000C9468
:10002A0000000C9400000C9400000C9400000C9446
:10003A0000000C9400000C9400000C9400000C9436
:10004A00DA000C9400000C94000001000500040082
:10005A000C0008000A0002000300000048420000E9
:10006A00C8426F12833A0000000056613D00727068
:10007A006D002056723D0046554C4C0048414C4696
:10008A00002020202D2D3E002020203C2D2D002058
:10009A0020204F4E002020204F46460080C00100FD
:1000AA002D4E414E00494E4600000F009E0154005D
:1000BA000400AE0164000400B20168000400B60145
:1000CA006C000400600174000400640178000500FB
:1000DA0068017C0004006D0178000500710181004F
:1000EA0005007601860007007B018B00070082016C
:1000FA00920006008901990007008F019F00040001
:10010A000A0070000200DC01A6000100E301A80059
:10011A000000F894EE27ECBBF1E0FBBFEBBFE5BFB4
:10012A00F8E1F1BDE1BD8DE0A2E0BB27ED938A9530
:10013A00E9F780E094E0A0E6ED930197E9F7E4EBB4
:10014A00F0E085919591009761F0A591B5910590A0
:10015A001590BF01F00105900D920197E1F7FB019F
:10016A00F0CFEFE5EDBFE4E0EEBFC0E6D1E00C94DE
:10017A0094010E946A03EA15FB0519F4AA24BB2418
:10018A0003C0E1E0F0E05F010BC00E946A03EC15D6
:10019A00FD0519F4CC24DD2403C0E1E0F0E06F0191
:1001AA00E991EFBFF991E9911895AA93BA93EA9365
:1001BA00FA93EFB7EA93AAE9B1E0ED91FD9131968E
:1001CA00FE93EE93E991EFBFF991E991B991A99163
:1001DA0018950A921A926A937A93AA93BA93EA930F
:1001EA00FA93EFB7EA93ACE9B1E0ED91FD9131965C
:1001FA00FE93EE93A0919C01B0919D011597B4F0E6
:10020A00E0E0E0939C01E0939D01E0919A01F09176
:10021A009B01A2EDB1E00E9436050E940D040E94E6
:10022A006905E0E0E0939A01E0939B01E991EFBF51
:10023A00F991E991B991A9917991699119900990E6
:10024A0018950E9478050E946E05EC81FD816E81E9
:10025A007F810E944004E093CA01F093CB0160932E
:10026A00CC017093CD01A091AE01B091AF01809104
:10027A00B0019091B1010E949704E093C601F093F6
:10028A00C7016093C8017093C901E091B601F0916A
:10029A00B7016091B8017091B901A091CA01B091FA
:1002AA00CB018091CC019091CD010E949704A0913D
:1002BA00BA01B091BB018091BC019091BD010E942D
:1002CA004704E093BA01F093BB016093BC017093B9
:1002DA00BD01A091B201B091B3018091B401909196
:1002EA00B5010E949704E093BE01F093BF016093A9
:1002FA00C0017093C101A091C601B091C70180915C
:10030A00C8019091C9010E944704E093C201F09389
:10031A00C3016093C4017093C50128960895EFE064
:10032A00EABBECE1E2BBE0E0EFBDECE0EEBDEAE700
:10033A00EBBDE1E1EABDE0EEEBBFEAE0E5BFE0E0FC
:10034A00E4BFE5E0E7B9E6E8E6B9E0E1E9BFA0E144
:10035A000E940D037894369A349BFECFE4B1F5B12E
:10036A00DF01E8E2F0E00E944805A6EDB1E0662769
:10037A0077270E940D040E946905A0E08499A1E0F4
:10038A00A03031F4A0919801B0919901109709F029
:10039A0018C0A0919601B0919701119731F4E0E04D
:1003AA00E0939601E093970106C0E1E0F0E0E09364
:1003BA009601F0939701E1E0F0E0E0939801F09361
:1003CA009901849B05C0E0E0E0939801E0939901CC
:1003DA000E947103C1F5F301AEE9B1E0EE0FFF1F10
:1003EA00AE0FBF1FEC91EBBBF601EE0FFF1FA1E0B2
:1003FA00B0E0AE1BBF0BE0919601F09197013196E8
:10040A000E9443056E0E7F1EE8E0F0E0E615F70550
:10041A0011F466247724E9E0F0E0E615F70519F40B
:10042A00E1E0F0E03F01EFEFFFEFE615F70519F421
:10043A00E7E0F0E03F01EEEFFFEFE615F70519F40C
:10044A00E6E0F0E03F01A091D201B091D3018091A2
:10045A00D4019091D501E0E0F0E060E471E40E94FB
:10046A009704DF01CB01E0E0F0E060EA71E40E946A
:10047A00E504E093CE01F093CF016093D00170932D
:10048A00D101A0E6B1E0B3D00E9476030E947F03B7
:10049A00A4E6B1E0ACD0A8E6B1E0A9D0E091CE01E3
:1004AA00F091CF016091D0017091D1010E947F0338
:1004BA00ADE6B1E09CD0E0E0EA93A1E059D0A0918A
:1004CA009601B0919701119719F4A1E7B1E002C022
:1004DA00A6E7B1E08CD00C2C0D2819F4ABE7B1E0FB
:1004EA0002C0A2E8B1E083D00E94710319F4A9E81E
:1004FA00B1E002C0AFE8B1E07AD00E94710389F49A
:10050A000E9476030E947305A091CE01B091CF019B
:10051A008091D0019091D10194DE0E94D403DF0131
:10052A0002C0AAE0B0E00E949D0333D014CFFFCFEF
:10053A00AA93E5B3EF70AE2FE881E07FEA2BE5BB23
:10054A0085E08A95F1F7AA9A8DE08A95F1F7AA983B
:10055A008DE08A95F1F789C0AA93A881E9DFE8813D
:10056A00E295E883A881E4DF85E88A95F1F77DC002
:10057A00AA93E881F0E0E452FE4FE081A981AE0F30
:10058A00EBDFE981E093E001E881E093E101229663
:10059A000895A2E00E948F03ACE0DEDFA1E00E9492
:1005AA008F03E0E0E093E101E093E0010895AA936C
:1005BA00A881AA3031F0E091E201A091E001AE17E2
:1005CA0060F0E0E0EA93A091E101AF5FA093E1015E
:1005DA00CFDFA881AA3009F448C0E091E001EF5FBB
:1005EA00E093E001A89AA881B7DFA8983EC0BA9321
:1005FA00AA931A93A981BA81ED91A983BA831E2F6E
:10060A00E03019F0A12FD3DFF5CF18812396089592
:10061A00AA93E4B3E06FE4BBA29AA09AA19AAA981B
:10062A00A898A998E881E093E201E058E093DE01F6
:10063A00E881E054E093DF01A4E1B0E00E949D0369
:10064A000E9495030E9495030E949503A0E270DF21
:10065A0088EC90E00197F1F7A8E27EDFA4E07CDF66
:10066A00A5E87ADFA6E078DF94DF21960895BA93A9
:10067A00AA93A991B991E991F99130962AF4E09552
:10068A00F09531966DE26D93E89480E197E20DD092
:10069A0088EE93E00AD084E6992707D08AE005D04D
:1006AA006E2F10D066276C9308956627E817F9070E
:1006BA0020F06395E81BF90BC9F7662311F416F0CD
:1006CA0008956894605D6D930895EA93FA93EFB77D
:1006DA00EA93E1E0F0E00895E1E0F0E0EA15FB05D5
:1006EA000895E091D601F091D7016091D8017091F7
:1006FA00D90108950E94D603FA93EA93A091DA01E8
:10070A00B091DB010E943C03A091DA01B091DB01B8
:10071A000C94FC020E94B102A3E0B0E00C949D0389
:10072A00A0E30E949D0288EC90E00197F1F70895FA
:10073A00109639F080ED97E00197F1F7A895119797
:10074A00C9F70895552342F4503811F4E0FF04C064
:10075A003196691F791F6BF050E8572711F45F93A0
:10076A00CFC05F3F31F0660F000C57956795752F24
:10077A0008955F9300200AF0CFC0C8C050E8192E30
:10078A001522880F991F9527550F879550E8072E30
:10079A000522660F771F7527550F67950895689488
:1007AA0001C0E8945F93F2DF703818F07F3F08F4D5
:1007BA00A7C056E1571BAAF4519558300EF4593088
:1007CA0030F0EFEFFFEF6FEF7FE777F91AC0772787
:1007DA005523B9F0EE0FFF1F661F771F5A95D1F701
:1007EA0010C07727583028F0EF2FF62F672F585070
:1007FA00F9CF552331F076956795F795E7955A9590
:10080A00D1F700200AF425D15F910895689401C0B8
:10081A00E894309760407040B1F0002426F07723C6
:10082A0012F4009416D1172E7EE1112032F07A9537
:10083A00EE0FFF1F661F111CF9CFEF2FF62F612D48
:10084A005F938ADF5F9108954F93AF01FD01DA014B
:10085A00AB01BC01CA01402D012C142E4F91089501
:10086A00EA0FFB1F681F0895E095F0956095EF5F0A
:10087A00FF4F6F4F08955F9381DF903871F150E811
:10088A00152604C05F937ADF903839F1703821F168
:10089A00572F591B2BF112F4D7DFFACF583118F022
:1008AA00AA27BB278827583028F0AB2FB82F8827CC
:1008BA005850F9CF552329F08695B795A7955A959B
:1008CA00D9F7502D512572F0CBDF38F46795F7959B
:1008DA00E795739513F420C0B7DF3EDF5F91089563
:1008EA00D8F7FBCFEA1BFB0B680B51F010F400940E
:1008FA00BBDF662392F3EE0FFF1F661F7A95CBF7D5
:10090A00EE27FF27662777275F910895EFEFFFEF1E
:10091A006FE77FEF5F910895EFEFFFEF6FE77FE7F4
:10092A005F9108955F932ADF703851F3903841F34D
:10093A0001240894791F23F41CF300203AF3ECCF26
:10094A000F921F932F933F934F9311272227992793
:10095A00689FA0018F9F302D410D591F6B9F300D4D
:10096A00411D591F8E9F27D0BF9F25D06A9F23D034
:10097A00BE9F1DD0AF9F1BD0AE9F110D291F391FDF
:10098A00491F591FE32FF42F652F522F4F913F9183
:10099A002F911F910F9066232AF0550FEE1FFF1F0C
:1009AA00661F02C073954BF2CDDE5F910895100D5C
:1009BA00211D391F02C0200D311D491F591F0895DD
:1009CA005F93DCDE703821F411200AF49FCFA4CFA4
:1009DA00903809F495CF01240894970B1BF4D4F3AB
:1009EA000020F3CF792F1F932F933F934F93112416
:1009FA001127222733274427552790E2AE17BF072E
:100A0A008607410730F0AE1BBF0B860B410B0894DB
:100A1A0001C08894551F221F331F111CAA1FBB1F18
:100A2A00881F441F9A9551F7F901612D4F913F9103
:100A3A002F911F91662332F0550FEE1FFF1F661F7D
:100A4A007A9543F27FDE5F910895F195E195F04042
:100A5A000895F09560957095E195FF4F6F4F7F4F20
:100A6A0008956F2F660F660B762F0895FA9FF02D63
:100A7A00EB9FF00DEA9FE02DF10D089517D0F6DFF8
:100A8A000EF4E3DF08950024112490E1AA0FBB1F9E
:100A9A00001C111C0E1A1F0A18F40E0E1F1E01C08C
:100AAA00A1609A9599F7FD01D0010895E894F7FF9E
:100ABA0002C0CBDF6894B7FF06C0A095B095119627
:100ACA0000F8039400FA0895ED93FD936D937C93D7
:100ADA000895A881B9818A819B8108957A936A933E
:100AEA00FA93EA9308959A938A93BA93AA930895E4
:00000001FF
