:0A0000000C945D000C948D000C942C
:10000A0099000C9400000C9400000C9400000C94CD
:10001A0000000C9400000C9400000C9400000C9456
:10002A0000000C9400000C9400000C9400000C9446
:10003A0000000C9400000C9400000C9400000C9436
:10004A0000000C9400000C9400001027E8036400E0
:10005A000A00010000100001100001001000200039
:10006A002100010003000200120010000000666572
:10007A007364660073656E736F723D0001002D4EE6
:10008A00414E00494E46000080C00F0072016600D2
:10009A00060060017800080066017E000200060082
:1000AA00760001008B01860002008F019200000099
:1000BA00F894EE27ECBBF1E0FBBFEBBFE5BFF8E13C
:1000CA00F1BDE1BD8DE0A2E0BB27ED938A95E9F78A
:1000DA0080E094E0A0E6ED930197E9F7E4E9F0E027
:1000EA0085919591009761F0A591B591059015902C
:1000FA00BF01F00105900D920197E1F7FB01F0CFE6
:10010A00EFE5EDBFE4E0EEBFC0E6D1E00C94AD0050
:10011A00EA93FA93EFB7EA93F40131964F01E99122
:10012A00EFBFF991E99118950A92EA93FA93EFB71A
:10013A00EA93F40131974F0100248014900414F4D7
:10014A0088249924E991EFBFF991E99109901895CA
:10015A00E0E0EBBBEABBE8BBE7EFE7BBE0E0E5BB0F
:10016A00EFEFE4BBE0E0E2BBECE3E1BBE0E0E3BFDE
:10017A00E2BFECBFEFBDEEBDEDBDECBDE7BDE6BD38
:10018A00EBBDEABDE9BDE8BDE2BDE5BDE4BDE3BD49
:10019A00EBB7E06CEBBFEFE0E5BFE0E0E9BFEAB93F
:1001AA00E0E8E8B9E0E0E0BFE7B9E6E8E6B9E0E0B0
:1001BA00EDB9E6BFA0E10E9471027894369AA0E6F2
:1001CA00B1E00E946002A8EEB3E00E9447030E94D9
:1001DA003902369A349BFECFE4B1F5B16627772708
:1001EA00E0936E01F0936F01609370017093710157
:1001FA00E4B1F5B1662777270E94BD03DF01CB0181
:10020A00E0E0F0EC6FEF73E40E949504E093820162
:10021A00F09383016093840170938501A6E6B1E0AF
:10022A000E94F402E0918201F091830160918401BD
:10023A00709185010E941605E2E0EA93A6E8B1E012
:10024A000E944501A6E8B1E00E94F4020E94390228
:10025A00F301A2E7B1E0EE0FFF1FAE0FBF1FEC9153
:10026A00E5BBA4E60E94FA02F30131963F01E8E0F9
:10027A00F0E0E615F70514F466247724AACFFFCF39
:10028A00BA93AA932497E0E0E883E983EA83EFE349
:10029A00EB831A930A93EB85FC85EF3FAFEFFA07DE
:1002AA0039F40E94FD02A8E8B0E00E949F02ABC0A8
:1002BA00EF3FAFE7FA0739F40E94FD02A9E8B0E080
:1002CA000E949F02A0C0AC85AA2362F4E985FA8540
:1002DA006B857C850E9451030E9402030E940703DA
:1002EA00EDE2EC93A885A73010F0E6E0E8871885E0
:1002FA00E12F1150E03039F00E940E030E941303DF
:10030A000E941A03F5CF0E941F030E94F7030E945E
:10031A00020310E0E0E0F0E060E87FE30E941A03E5
:10032A000E941F030E94DA0488F00E940E030E94B2
:10033A0028030E941A031F5F173238F00E94FD0239
:10034A00ADE8B0E00E949F025EC0EACF103029F407
:10035A000E940703E0E3EC932CC0E12F1150E03038
:10036A0041F10E940E030E941303A0E0B0E080E076
:10037A009FE30E94F703DF01CB010E94DD020E9486
:10038A001A030E941F030E9495040E9484030E2FE1
:10039A000E9407030E942F030E940E030E94020577
:1003AA000E94BD030E9447040E9435030E943A033B
:1003BA00D4CFE885E03019F10E940703EEE2EC930E
:1003CA00E885E150E887EF5FD1F00E9435030E948B
:1003DA0028030E940203E985FA856B857C850E94C1
:1003EA0084030E2F0E9407030E942F030E943503E5
:1003FA000E9402050E94BD030E943A03E1CFAE812A
:10040A00BF81E0E0EC93198108812D960895AA93A3
:10041A00E8B3EF70AE2FE881E07FEA2BE8BB85E016
:10042A008A95F1F7C29A8DE08A95F1F7C2988DE024
:10043A008A95F1F77DC0AA93A881E9DFE881E29560
:10044A00E883A881E4DF85E88A95F1F771C0AA9369
:10045A00E881F0E0E157FE4FE081A981AE0FEBDFC2
:10046A00D980C88022960895A2E0E5DFA3E00E9421
:10047A00FA02ACE0E0DFA1E0DEDFA3E00E94FA02CC
:10048A00E0E0CE2EDE2E0895AA93A881AA3021F0AC
:10049A00E0919301DE1648F0E0E0EA93C394AC2DB4
:1004AA00D6DFA881AA3009F443C0D394C09AA881A0
:1004BA00C2DFC0983DC0BA93AA931A93A981BA81A0
:1004CA00ED91A983BA831E2FE03019F0A12FDCDF4A
:1004DA00F5CF188123960895AA93E7B3E06FE7BB97
:1004EA00BA9AB89AB99AC298C098C198E881E09322
:1004FA009301E058E0939101E881E054E09392017E
:10050A00A4E10E94FA020E943F030E943F030E9454
:10051A003F03A0E27CDF88EC90E00197F1F7A8E2C4
:10052A008ADFA4E088DFA5E886DFA6E084DF9CDF17
:10053A0021960895BA93AA93E991F991A991B9914B
:10054A00CD0105900D920020E1F7FC0108950E946B
:10055A001B057B816A81F981E88177FB770F67FD4B
:10056A007160972F9E5781F078F0983190F4AA27FE
:10057A00BB27882708948795B795A7959A95D1F7A9
:10058A00EA23FB23682305C0E8947727EE27FF2791
:10059A0066276F77769508F4606877F9A991B9911B
:1005AA0089919991EA17FB076807790797FB0895DC
:1005BA000E941B050E940C050E94AC020E941105B4
:1005CA0019F40E94070509C0E6F70E940705A0E092
:1005DA00B0E080E89FE30E94F003249608950E9409
:1005EA006002A4EFB1E00C944703B0E00C94470317
:1005FA00EE81FF81FA93EA930895E987FA876B8778
:10060A007C870895AE81BF811196AE83BF8311970F
:10061A000895AA81BB818C819D810895EDECFCEC43
:10062A006CEC7DE30E9447040895EA83FB836C83A4
:10063A007D830895EA81FB816C817D81A985BA85D4
:10064A008B859C850895E0E0F0E060E271E40E9409
:10065A0047040895E02FE05DEC93E02FF0E0089561
:10066A00A985BA858B859C8508950E9420050E94DC
:10067A00F003C3CFA0E30E940C0288EC90E001973C
:10068A00F1F70895109639F080ED97E00197F1F7A8
:10069A00A8951197C9F7089530976040704009F0FE
:1006AA0070580895552342F4503811F4E0FF04C0FD
:1006BA003196691F791F6BF050E8572711F45F9341
:1006CA00CFC05F3F31F0660F000C57956795752FC5
:1006DA0008955F9300200AF0CFC0C8C050E8192ED1
:1006EA001522880F991F9527550F879550E8072ED1
:1006FA000522660F771F7527550F67950895689429
:10070A0001C0E8945F93F2DF703818F07F3F08F475
:10071A00A7C056E1571BAAF4519558300EF4593028
:10072A0030F0EFEFFFEF6FEF7FE777F91AC0772727
:10073A005523B9F0EE0FFF1F661F771F5A95D1F7A1
:10074A0010C07727583028F0EF2FF62F672F585010
:10075A00F9CF552331F076956795F795E7955A9530
:10076A00D1F700200AF441D15F910895689401C03D
:10077A00E894309760407040B1F0002426F0772367
:10078A0012F4009432D1172E7EE1112032F07A95BC
:10079A00EE0FFF1F661F111CF9CFEF2FF62F612DE9
:1007AA005F938ADF5F9108954F93AF01FD01DA01EC
:1007BA00AB01BC01CA01402D012C142E4F910895A2
:1007CA00EA0FFB1F681F0895E095F0956095EF5FAB
:1007DA00FF4F6F4F08955F9381DF903871F150E8B2
:1007EA00152604C05F937ADF903839F1703821F109
:1007FA00572F591B2BF112F4D7DFFACF583118F0C3
:10080A00AA27BB278827583028F0AB2FB82F88276C
:10081A005850F9CF552329F08695B795A7955A953B
:10082A00D9F7502D512572F0CBDF38F46795F7953B
:10083A00E795739513F420C0B7DF3EDF5F91089503
:10084A00D8F7FBCFEA1BFB0B680B51F010F40094AE
:10085A00BBDF662392F3EE0FFF1F661F7A95CBF775
:10086A00EE27FF27662777275F910895EFEFFFEFBF
:10087A006FE77FEF5F910895EFEFFFEF6FE77FE795
:10088A005F9108955F932ADF703851F3903841F3EE
:10089A0001240894791F23F41CF300203AF3ECCFC7
:1008AA000F921F932F933F934F9311272227992734
:1008BA00689FA0018F9F302D410D591F6B9F300DEE
:1008CA00411D591F8E9F27D0BF9F25D06A9F23D0D5
:1008DA00BE9F1DD0AF9F1BD0AE9F110D291F391F80
:1008EA00491F591FE32FF42F652F522F4F913F9124
:1008FA002F911F910F9066232AF0550FEE1FFF1FAD
:10090A00661F02C073954BF2CDDE5F910895100DFC
:10091A00211D391F02C0200D311D491F591F08957D
:10092A005F93DCDE703821F411200AF49FCFA4CF44
:10093A00903809F495CF01240894970B1BF4D4F34B
:10094A000020F3CF792F1F932F933F934F931124B6
:10095A001127222733274427552790E2AE17BF07CE
:10096A008607410730F0AE1BBF0B860B410B08947C
:10097A0001C08894551F221F331F111CAA1FBB1FB9
:10098A00881F441F9A9551F7F901612D4F913F91A4
:10099A002F911F91662332F0550FEE1FFF1F661F1E
:1009AA007A9543F27FDE5F91089599239AF077232F
:1009BA0042F0971748F029F4AE17BF07860720F0D0
:1009CA0031F0989488940895989408940895189406
:1009DA00889408957723C2F7971798F3A9F7EA1727
:1009EA00FB07680788F399F3ECCFF095609570954B
:1009FA00E195FF4F6F4F7F4F08956F2F660F660B7C
:100A0A00762F0895E881F9816A817B810895A8810A
:100A1A00B9818A819B810895E883F9836A837B83FC
:100A2A0008957A936A93FA93EA9308959A938A9324
:100A3A00BA93AA930895182E862F612D192E972FEF
:100A4A00712D1B2EBF2FF12D1A2EAE2FE12D0895D9
:00000001FF
