:020000000C945E
:100002004F000C9400000C9400000C9400000C941F
:1000120000000C947F000C9400000C9400000C94DF
:1000220000000C9400000C9400000C9400000C944E
:1000320000000C9400000C9400000C9400000C943E
:1000420000000C9400000C9400000C9400000C942E
:100052000000503D20202020004E3D202020207511
:100062007300543D202020202020757300000100E1
:100072002D4E414E00494E46000080C007006001EF
:100082005400090067015B000B007001640001006D
:1000920085017000020089017C000000F894EE27BF
:1000A200ECBBF1E0FBBFEBBFE5BFF8E1F1BDE1BDA9
:1000B2008DE0A2E0BB27ED938A95E9F780E094E01A
:1000C200A0E6ED930197E9F7EEE7F0E085919591CF
:1000D200009761F0A591B59105901590BF01F001CF
:1000E20005900D920197E1F7FB01F0CFEFE5EDBF2F
:1000F200E4E0EEBFC0E6D1E00C94AF00EA93FA93DD
:10010200EFB7EA9346B457B446B45524869B10C061
:100112006414750420F4F201E619F70906C0E0E060
:10012200F0E0E619F709E40DF51D4F01E2E00FC01A
:100132006414750420F4F201E619F70906C0E0E040
:10014200F0E0E619F709E40DF51D5F01E2E4EEBD0A
:100152003201E991EFBFF991E9911895A0E10E946E
:100162002B020E94DA01E0E0EFBDE2E0EEBDE0E248
:10017200E9BF78940E94DA01A8EEB3E00E9465021A
:10018200F501662777270E94A002ABE7B1E00E9443
:100192001A01E0E0EA93A0E00E94CA01A0E6B1E001
:1001A2000E940902E2E0EA93A0E00E94CA01ABE7E2
:1001B200B1E00E940902F401662777270E94A0029B
:1001C200ABE7B1E00E941A01E8E0EA93A0E00E94E6
:1001D200CA01A7E6B1E00E940902EAE0EA93A0E0C0
:1001E2000E94CA01ABE7B1E00E940902F501E80DE5
:1001F200F91D662777270E94A002ABE7B1E00E94B3
:100202001A01E0E0EA93A1E00E94CA01A0E7B1E08E
:100212000E940902E2E0EA93A1E00E94CA01ABE770
:10022200B1E00E940902A4E6B0E00E946502A8CFF4
:10023200FFCFBA93AA9324971A930A93E0E0FAECB9
:100242006AE97BE3EA83FB836C837D8300E0AB8511
:10025200AA2392F4E885F9856A857B850E946F025C
:10026200E887F9876A877B87AE81BF811196AE8363
:10027200BF831197EDE2EC93EA81FB816C817D8172
:10028200A885B9858A859B850E9477021E2F10302A
:1002920071F4003061F4AA81BB818C819D81A1300F
:1002A200E0E0BE07E0E08E07E0E09E0751F4AE8199
:1002B200BF811196AE83BF831197E12FE05DEC936E
:1002C20001E0EA81FB816C817D81A885B9858A85FF
:1002D2009B850E949C02E887F9876A877B87AA81AF
:1002E200BB818C819D81EAE0F0E060E070E00E94D9
:1002F2007702EA83FB836C837D830E94A50209F067
:10030200BBCFAE81BF81E0E0EC93198108812C96CE
:100312000895FFE0FA95F1F70895AAB3AF70AABB6A
:10032200D99AD898F6DFDA9AF4DFA9B3DA98F1DF2E
:10033200DA9AEFDFDA98A7FDF5CF0895A07FAB2B0D
:10034200ABBBDA9A0E948A01DA980E948A01089568
:10035200AA93D998AAB3A76FAABBBBB3BF70A8814F
:10036200EDDFA881A295EADFD99A0C946302DA9AAA
:100372000E948A01E9B3DA980E948A01E07F089517
:100382000E948A01F4DFAE2FF2DFD998E295EA2BC0
:100392000895AA930E948E01E881F0E0E757FE4F8C
:1003A200E081A981AE0F0E94A901D980C88022965E
:1003B20008950E948E01A2E00E94A9010E948E016E
:1003C200ACE00E94A9010E948E01A1E00E94A90155
:1003D200E0E0CE2EDE2E0895AA93EF93FF93A8813C
:1003E2006894AA3029F0E894E0918D01DE1630F08D
:1003F200C394E0E0EA93AC2DCCDF36F0D3948DDFEA
:10040200D89AA8810E94A901FF91EF910C946302EE
:10041200BA93AA931A93A981BA81ED91A983BA8357
:100422001E2FE03019F0A12FD7DFF5CF18812396C8
:100432000895AA27BB271197F1F70895AA93D9988F
:10044200AAB3A76FAABBBBB3BF70A8810E949F01CA
:10045200D99A38C0AA93DA98D898E881E0938D01A6
:10046200E058E0938B01E881E054E0938C01E1DFF6
:10047200A0E3E4DFDEDFA0E3E1DFDBDFA0E3DEDF3A
:10048200D8DFA0E2DBDFD5DFA8E20E94A901D1DF3D
:10049200A4E00E94A901CDDFA5E80E94A901C9DF5D
:1004A200AAB3AF70AABBD99A0E94C101E53011F07C
:1004B200E0E008C00E948E01A6E00E94A9010E940D
:1004C200DA01E1E021960895109639F08AEF90E082
:1004D2000197F1F7A8951197C9F70895F0956095DE
:1004E2007095E195FF4F6F4F7F4F08953F934F9364
:1004F2005F93002411244427552730E2AA0FBB1F23
:10050200881F991F001C111C441F551F0E1A1F0A19
:10051200460B570B28F40E0E1F1E461F571F01C015
:10052200A1603A9559F7FD01BC01D001CA015F9162
:100532004F913F910895DADFFD01BC0108957A934E
:100542006A93FA93EA930895309760407040089551
:00000001FF
