:0A0000000C944D000C947D000C944C
:10000A0000000C9489000C9400000C9400000C94DD
:10001A0000000C9400000C9400000C9400000C9456
:10002A0000000C9400000C9400000C9400000C9446
:10003A0000000C9400000C9400000C9400000C9436
:10004A0000000C9400000C94000073686168642638
:10005A006A6F75640073706565643D00766F6C74D1
:10006A003D0080C001002D4E414E00494E46000021
:10007A000B006001540007006B015F00060072016B
:10008A00660002007A016C00010081016E00000026
:10009A00F894EE27ECBBF1E0FBBFEBBFE5BFF8E15C
:1000AA00F1BDE1BD8DE0A2E0BB27ED938A95E9F7AA
:1000BA0080E094E0A0E6ED930197E9F7EAE7F0E043
:1000CA0085919591009761F0A591B591059015904C
:1000DA00BF01F00105900D920197E1F7FB01F0CF06
:1000EA00EFE5EDBFE4E0EEBFC0E6D1E00C94A70077
:1000FA00EA93FA93EFB7EA93F40131964F01E99143
:10010A00EFBFF991E99118950A921A92AA93BA93B4
:10011A00EA93FA93EFB7EA93E2E3F0E0E815F90518
:10012A0041F4F401ACE2B1E00E940A025F018824C2
:10013A009924E991EFBFF991E991B991A99119909F
:10014A0009901895E0E0EBBBEABBE8BBE8E0E7BB47
:10015A00E0E0E5BBE4BBE2BBE4E0E1BBEBE0E5BD2C
:10016A00E0E0E4BDECE7ECBFE0E0E2BDEDE6E3BFD2
:10017A00E0E0E2BFE3BDEBB7E064EBBFE2E0E5BF7E
:10018A00E0E0E4BFE0E4EABFE0E8E9BFE6E8E6B9B8
:10019A00A0E1B1D07894A0E6B1E00E94DB016CD076
:1001AA00369A349BFECF44B055B0F201AFEFB0E0BF
:1001BA000E94E1016F01ABE6B1E08CD0E7E0EA937F
:1001CA00A0E049D0DA92CA920E94E9010E94AD01E8
:1001DA000E94E9010E94DB01F201A9E0B0E00E945D
:1001EA00E1013F01E0E0EA93A1E035D0A2E7B1E006
:1001FA0071D0E6E0EA93A1E02ED07A926A920E9448
:10020A00E9010E94AD010E94E90164D00E94EE0159
:10021A0033D0C6CFFFCFAA93E5B3EF70AE2FE881F4
:10022A00E07FEA2BE5BB85E08A95F1F7AA9A8DE093
:10023A008A95F1F7AA988DE08A95F1F787C0AA9373
:10024A00A881E9DFE881E295E883A881E4DF85E80F
:10025A008A95F1F77BC0AA93E881F0E0E658FE4F51
:10026A00E081A981AE0FEBDFE981E0937E01E881AD
:10027A00E0937F0122960895A2E00E94F201ACE089
:10028A00DEDFA1E00E94F201E0E0E0937F01E0936B
:10029A007E010895AA93A881AA3031F0E0918001E5
:1002AA00A0917E01AE1760F0E0E0EA93A0917F0191
:1002BA00AF5FA0937F01CFDFA881AA3009F446C0BF
:1002CA00E0917E01EF5FE0937E01A89AA881B7DFF3
:1002DA00A8983CC0BA93AA931A93A981BA81ED91BE
:1002EA00A983BA831E2FE03019F0A12FD3DFF5CFEF
:1002FA00188123960895AA93E4B3E06FE4BBA29A07
:10030A00A09AA19AAA98A898A998E881E09380014E
:10031A00E058E0937C01E881E054E0937D010E947B
:10032A00EE010E94F8010E94F8010E94F801A0E281
:10033A0072DF88EC90E00197F1F7A8E280DFA4E091
:10034A007EDFA5E87CDFA6E07ADF96DF21960895B6
:10035A00BA93AA93A991B991E991F99130962AF49D
:10036A00E095F09531966DE26D93E89480E197E21D
:10037A000DD088EE93E00AD084E6992707D08AE068
:10038A0005D06E2F10D066276C9308956627E8175C
:10039A00F90720F06395E81BF90BC9F7662311F4F6
:1003AA0016F008956894605D6D9308950E946F0138
:1003BA00A2E3B0E00C9400020E940A02DF01EFEF10
:1003CA00F3E00E9412020895A0917801B091790198
:1003DA000895A4E1B0E00C9400020E942401A3E075
:1003EA00B0E00C940002A0E30E94100188EC90E0B7
:1003FA000197F1F70895109639F080ED97E001978B
:10040A00F1F7A8951197C9F70895FA9FF02DEB9F78
:10041A00F00DEA9FE02DF10D08950024112490E1DA
:10042A00AA0FBB1F001C111C0E1A1F0A18F40E0E6D
:10043A001F1E01C0A1609A9599F7FD01D001089588
:00000001FF
