:060000000C9444000C9476
:1000060000000C9400000C9400000C9400000C946A
:1000160000000C9400000C9400000C9400000C945A
:1000260000000C9400000C9400000C9400000C944A
:1000360000000C9400000C9400000C9400000C943A
:1000460000000C9400000C9400000C940000566F05
:100056006C743D20202020202020202020560000E7
:1000660001002D4E414E00494E46000080C0110051
:100076006001540001007901660002007D017200F2
:100086000000F894EE27ECBBF1E0FBBFEBBFE5BF49
:10009600F8E1F1BDE1BD8DE0A2E0BB27ED938A95C5
:1000A600E9F780E094E0A0E6ED930197E9F7E4E74D
:1000B600F0E085919591009761F0A591B591059035
:1000C6001590BF01F00105900D920197E1F7FB0134
:1000D600F0CFEFE5EDBFE4E0EEBFC0E6D1E00C9473
:1000E6007400E0E4E7B9E3E8E6B9A0E10E947F0224
:1000F6000E943002369A349BFECFE4B1F5B16627F2
:1001060077270E948303A2E5B7E280E29CE30E9480
:100116000D04E0937101F093720160937301709383
:1001260074010E94DC04E3E0EA93A5E7B1E00E94D3
:10013600B400E0E0EA93A0E00E942002A0E6B1E06D
:100146000E945D02E5E0EA93A0E00E942002A5E796
:10015600B1E00E945D02AAEFB0E00E940D03CACF93
:10016600FFCFBA93AA932497E0E0E883E983EA8372
:10017600EFE3EB831A930A93EB85FC85EF3FAFEF32
:10018600FA0749F4EE81FF81FA93EA93A8E6B0E014
:100196000E9400030EC1EF3FAFE7FA0749F4EE8174
:1001A600FF81FA93EA93A9E6B0E00E94000301C139
:1001B600AC85AA2392F4E985FA856B857C850E9435
:1001C6001703E987FA876B877C87AE81BF81119613
:1001D600AE83BF831197EDE2EC93A885A73010F0AC
:1001E600E6E0E8871885E12F1150E03079F0AA8122
:1001F600BB818C819D81EDECFCEC6CEC7DE30E9477
:100206000D04EA83FB836C837D83EDCFEA81FB815A
:100216006C817D81A985BA858B859C850E94BD03ED
:10022600E987FA876B877C8710E0E0E0F0E060E81A
:100236007FE3EA83FB836C837D83EA81FB816C81A8
:100246007D81A985BA858B859C850E94A004D8F0FE
:10025600AA81BB818C819D81E0E0F0E060E271E4DF
:100266000E940D04EA83FB836C837D831F5F173234
:1002760048F0EE81FF81FA93EA93ADE6B0E00E9482
:10028600000397C0DACF103049F4AE81BF811196D2
:10029600AE83BF831197E0E3EC9349C0E12F115081
:1002A600E03011F40C949A01AA81BB818C819D8166
:1002B600EDECFCEC6CEC7DE30E940D04A0E0B0E0FC
:1002C60080E09FE30E94BD03DF01CB010E94E902AB
:1002D600EA83FB836C837D83A985BA858B859C85A0
:1002E6000E945B040E944A030E2FAE81BF811196C5
:1002F600AE83BF831197E02FE05DEC93E02FF0E033
:10030600AA81BB818C819D810E94C8040E948303BF
:100316000E940D04A985BA858B859C850E94E604FA
:100326000E94B603E987FA876B877C87B7CFE88593
:10033600E03009F43AC0AE81BF811196AE83BF8327
:100346001197EEE2EC93E885E150E887EF5F69F1FB
:10035600A985BA858B859C85E0E0F0E060E271E4D2
:100366000E940D04E987FA876B877C870E944A03FF
:100376000E2FAE81BF811196AE83BF831197E02FFA
:10038600E05DEC93E02FF0E0A985BA858B859C852E
:100396000E94C8040E9483030E94E6040E94B603DA
:1003A600E987FA876B877C87CECFAE81BF81E0E095
:1003B600EC93198108812D960895FFE0FA95F1F7DF
:1003C6000895A4B3AF70A4BBA99AA898F6DFAA9A19
:1003D600F4DFA3B3AA98F1DFAA9AEFDFAA98A7FDE4
:1003E600F5CF0895A07FAB2BA5BBAA9A0E94E0018A
:1003F600AA980E94E0010895AA93A998A4B3A76FAA
:10040600A4BBB5B3BF70A881EDDFA881A295EADFD2
:10041600A99A0C94B602AA9A0E94E001E3B3AA989C
:100426000E94E001E07F08950E94E001F4DFAE2F14
:10043600F2DFA998E295EA2B0895AA930E94E401B7
:10044600E881F0E0E358FE4FE081A981AE0F0E94FB
:10045600FF0159804880229608950E94E401A2E097
:100466000E94FF010E94E401ACE00E94FF010E948D
:10047600E401A1E00E94FF01E0E04E2E5E2E089509
:10048600AA93EF93FF93A8816894AA3019F0E89491
:10049600571430F04394E0E0EA93A42DCEDF36F013
:1004A60053948FDFA89AA8810E94FF01FF91EF91D4
:1004B6000C94B602BA93AA931A93A981BA81ED91C4
:1004C600A983BA831E2FE03019F0A12FD9DFF5CF0B
:1004D600188123960895AA27BB271197F1F7089547
:1004E600AA93A998A4B3A76FA4BBB5B3BF70A881FC
:1004F6000E94F501A99A37C0AA93AA98A89878806D
:10050600E881E058E0937F01E881E054E0938001C0
:10051600E2DFA0E3E5DFDFDFA0E3E2DFDCDFA0E38D
:10052600DFDFD9DFA0E2DCDFD6DFA8E20E94FF0131
:10053600D2DFA4E00E94FF01CEDFA5E80E94FF0102
:10054600CADFA4B3AF70A4BBA99A0E941702E53014
:1005560011F0E0E008C00E94E401A6E00E94FF015D
:100566000E943002E1E0219608950E94E1047B8119
:100576006A81F981E88177FB770F67FD7160972FB4
:100586009E5781F078F0983190F4AA27BB278827E8
:1005960008948795B795A7959A95D1F7EA23FB23F3
:1005A600682305C0E8947727EE27FF2766276F772D
:1005B600769508F4606877F9A991B991899199912E
:1005C600EA17FB076807790797FB08950E94E1047D
:1005D6000E94D2040E94B8020E94D70419F40E9415
:1005E600CD0409C0E6F70E94CD04A0E0B0E080E8A3
:1005F6009FE30E94B60324960895BA93AA93E991BD
:10060600F991A991B991CD0105900D920020E1F7DC
:10061600FC010895109639F08AEF90E00197F1F702
:10062600A8951197C9F7089530976040704009F072
:1006360070580895552342F4503811F4E0FF04C071
:100646003196691F791F6BF050E8572711F45F93B5
:10065600CFC05F3F31F0660F000C57956795752F39
:1006660008955F9300200AF0CFC0C8C050E8192E45
:100676001522880F991F9527550F879550E8072E45
:100686000522660F771F7527550F6795089568949D
:1006960001C0E8945F93F2DF703818F07F3F08F4EA
:1006A600A7C056E1571BAAF4519558300EF459309D
:1006B60030F0EFEFFFEF6FEF7FE777F91AC077279C
:1006C6005523B9F0EE0FFF1F661F771F5A95D1F716
:1006D60010C07727583028F0EF2FF62F672F585085
:1006E600F9CF552331F076956795F795E7955A95A5
:1006F600D1F700200AF441D15F910895689401C0B2
:10070600E894309760407040B1F0002426F07723DB
:1007160012F4009432D1172E7EE1112032F07A9530
:10072600EE0FFF1F661F111CF9CFEF2FF62F612D5D
:100736005F938ADF5F9108954F93AF01FD01DA0160
:10074600AB01BC01CA01402D012C142E4F91089516
:10075600EA0FFB1F681F0895E095F0956095EF5F1F
:10076600FF4F6F4F08955F9381DF903871F150E826
:10077600152604C05F937ADF903839F1703821F17D
:10078600572F591B2BF112F4D7DFFACF583118F037
:10079600AA27BB278827583028F0AB2FB82F8827E1
:1007A6005850F9CF552329F08695B795A7955A95B0
:1007B600D9F7502D512572F0CBDF38F46795F795B0
:1007C600E795739513F420C0B7DF3EDF5F91089578
:1007D600D8F7FBCFEA1BFB0B680B51F010F4009423
:1007E600BBDF662392F3EE0FFF1F661F7A95CBF7EA
:1007F600EE27FF27662777275F910895EFEFFFEF34
:100806006FE77FEF5F910895EFEFFFEF6FE77FE709
:100816005F9108955F932ADF703851F3903841F362
:1008260001240894791F23F41CF300203AF3ECCF3B
:100836000F921F932F933F934F93112722279927A8
:10084600689FA0018F9F302D410D591F6B9F300D62
:10085600411D591F8E9F27D0BF9F25D06A9F23D049
:10086600BE9F1DD0AF9F1BD0AE9F110D291F391FF4
:10087600491F591FE32FF42F652F522F4F913F9198
:100886002F911F910F9066232AF0550FEE1FFF1F21
:10089600661F02C073954BF2CDDE5F910895100D71
:1008A600211D391F02C0200D311D491F591F0895F2
:1008B6005F93DCDE703821F411200AF49FCFA4CFB9
:1008C600903809F495CF01240894970B1BF4D4F3C0
:1008D6000020F3CF792F1F932F933F934F9311242B
:1008E6001127222733274427552790E2AE17BF0743
:1008F6008607410730F0AE1BBF0B860B410B0894F1
:1009060001C08894551F221F331F111CAA1FBB1F2D
:10091600881F441F9A9551F7F901612D4F913F9118
:100926002F911F91662332F0550FEE1FFF1F661F92
:100936007A9543F27FDE5F91089599239AF07723A3
:1009460042F0971748F029F4AE17BF07860720F044
:1009560031F098948894089598940894089518947A
:10096600889408957723C2F7971798F3A9F7EA179B
:10097600FB07680788F399F3ECCFF09560957095BF
:10098600E195FF4F6F4F7F4F08956F2F660F660BF0
:10099600762F0895E881F9816A817B810895A8817F
:1009A600B9818A819B810895E883F9836A837B8371
:1009B60008957A936A93FA93EA9308959A938A9399
:1009C600BA93AA930895182E862F612D192E972F64
:1009D600712D1B2EBF2FF12D1A2EAE2FE12D08954E
:00000001FF
