:060000000C9454000C9466
:1000060000000C9400000C9400000C9400000C946A
:1000160000000C9400000C9400000C9400000C945A
:1000260000000C9400000C9400000C9400000C944A
:1000360000000C9484000C9400000C9400000C94B6
:1000460000000C9400000C9400000C940000413059
:100056003D202020200041313D202020200041323B
:100066003D202020200041333D202020200001009B
:100076002D4E414E00494E46000080C008006001EA
:100086005400080068015C00080070016400080064
:1000960078016C0001008801740002008C01800068
:1000A6000000F894EE27ECBBF1E0FBBFEBBFE5BF29
:1000B600F8E1F1BDE1BD8DE0A2E0BB27ED938A95A5
:1000C600E9F780E094E0A0E6ED930197E9F7E2E82E
:1000D600F0E085919591009761F0A591B591059015
:1000E6001590BF01F00105900D920197E1F7FB0114
:1000F600F0CFEFE5EDBFE4E0EEBFC0E6D1E00C9453
:10010600A9008A93AA93BA93EA93FA93EFB7EA936C
:10011600E52DA0E8B1E0F0E0EE0FFF1FAE0FBF1F28
:10012600E4B1F5B1ED93FC935394E4E0E51509F4DD
:10013600552457B883E08A95F1F7369AE991EFBFCF
:10014600F991E991B991A99189911895E0E0E7B9FA
:10015600EBE8E6B9E0E1EA930E9417020E94C901C2
:100166007894369AE0918001F0918101FA93EA93AE
:100176007A926A920E944E01E0E0EA93EA930E9424
:10018600B901E0E6F1E0FA93EA930E94F801E3E0B0
:10019600EA93E0E0EA930E94B9017A926A920E9499
:1001A600F801E5E0F0E0FA93EA930E945702E09145
:1001B6008201F0918301FA93EA937A926A920E94FD
:1001C6004E01E8E0EA93E0E0EA930E94B901E8E62E
:1001D600F1E0FA93EA930E94F801EBE0EA93E0E09B
:1001E600EA930E94B9017A926A920E94F801E5E0C8
:1001F600F0E0FA93EA930E945702E0918401F091AD
:100206008501FA93EA937A926A920E944E01E0E09F
:10021600EA93E1E0EA930E94B901E0E7F1E0FA939C
:10022600EA930E94F801E3E0EA93E1E0EA930E9490
:10023600B9017A926A920E94F801E5E0F0E0FA9339
:10024600EA930E945702E0918601F0918701FA93A2
:10025600EA937A926A920E944E01E8E0EA93E1E01C
:10026600EA930E94B901E8E7F1E0FA93EA930E9463
:10027600F801EBE0EA93E1E0EA930E94B9017A9291
:100286006A920E94F801E5E0F0E0FA93EA930E9490
:10029600570268CFFFCFA991B991E991F9913096AC
:1002A6002AF4E095F09531966DE26D93E89480E13D
:1002B60097E20DD088EE93E00AD084E6992707D01E
:1002C6008AE005D06E2F10D066276C9308956627B6
:1002D600E817F90720F06395E81BF90BC9F76623C1
:1002E60011F416F008956894605D6D930895FFE02B
:1002F600FA95F1F70895A4B3AF70A4BBA99AA8988C
:10030600F6DFAA9AF4DFA3B3AA98F1DFAA9AEFDF81
:10031600AA98A7FDF5CF0895A07FAB2BA5BBAA9AF7
:100326000E947A01AA980E947A010895A998A4B316
:10033600A76FA4BBB5B3BF70A881EEDFA881A29555
:10034600EBDFA99A0C945502AA9A0E947A01E3B3AC
:10035600AA980E947A01E07F08950E947A01F4DF4C
:10036600AE2FF2DFA998E295EA2B08950E947E014E
:10037600E881F0E0E457FE4FE081A981EA0FEA93B5
:100386000E94990149809880229608950E947E01D4
:10039600E2E0EA930E9499010E947E01ECE0EA9372
:1003A6000E9499010E947E01E1E0EA930E94990170
:1003B600E0E09E2E4E2E0895EF93FF93A881689459
:1003C600AA3019F0E894481430F09394E0E0EA93E8
:1003D6009A92CCDF36F043948EDFA89AA881AA932E
:1003E600A5DFFF91EF910C9455021A93A981BA816A
:1003F600ED91A983BA831E2FE03019F01A93DCDF42
:10040600F5CF188123960895AA27BB271197F1F7F0
:100416000895A998A4B3A76FA4BBB5B3BF70A8816C
:100426000E948F01A99A3EC0AA98A8988880E88160
:10043600E058E0938E01E881E054E0938F01E4DF19
:10044600E0E3EA93E6DFE0DFE0E3EA93E2DFDCDF26
:10045600E0E3EA93DEDFD8DFE0E2EA93DADFD4DF37
:10046600E8E2EA930E949901CFDFE4E0EA930E9472
:100476009901CADFE5E8EA930E949901C5DFA4B3B2
:10048600AF70A4BBA99A0E94B001E53011F0E0E07C
:1004960009C00E947E01E6E0EA930E9499010E944B
:1004A600C901E1E021960895E991F991309639F074
:1004B6008AEF90E00197F1F7A8953197C9F708956B
:00000001FF
