:080000000C9474000C94000044
:100008000C9400000C9400000C9400000C94000068
:100018000C9400000C9400000C9400000C94000058
:100028000C9400000C94A4000C9400000C940000A4
:100038000C947B010C9400000C9400000C940000BC
:100048000C9400000C94CB000C94000001000000FC
:10005800000000004E6F726D616C204D6F6F642060
:100068006F6E004C696768746E696E67203D20008A
:100078004E69676874204D6F6F64206F6E0057611A
:10008800697420466F722073756E004D616E7561DC
:100098006C204D6F6F64206F6E0080C001002D4E84
:1000A800414E00494E4600000F0060015C000D0003
:1000B8006F016B000E007C0178000D008A0186003C
:1000C8000F00970193000D00A6016B0008000400C3
:1000D80054000200EF01A2000100F601A400000094
:1000E800F894EE27ECBBF1E0FBBFEBBFE5BFF8E10E
:1000F800F1BDE1BD8DE0A2E0BB27ED938A95E9F75C
:1001080080E094E0A0E6ED930197E9F7E0EBF0E0FA
:1001180085919591009761F0A591B59105901590FD
:10012800BF01F00105900D920197E1F7FB01F0CFB7
:10013800EFE5EDBFE4E0EEBFC0E6D1E00C94B50119
:10014800AA93EA93FA93EFB7EA93ECB1E093ED013F
:10015800A091ED01A33451F4662477244424552456
:1001680088249924E1E0F0E05F010BC0A091ED0143
:10017800A33639F4C39AE1E0F0E02F01AA24BB24A6
:10018800C398E991EFBFF991E991A99118950A925D
:100198001A926A937A938A939A93AA93BA93EA9350
:1001A800FA93EFB7EA93F60131966F01E8EEF3E0C0
:1001B800EC15FD0511F00C946E01E091B301F0917E
:1001C800B4016091B5017091B6010E942E04E093CC
:1001D800CB01F093CC016093CD017093CE010E94C6
:1001E8003904A091CF01B091D0018091D1019091B3
:1001F800D2010E948205E093CF01F093D001609371
:10020800D1017093D201CC24DD24A7EEB1E0ED91A9
:10021800FD913196FE93EE93A091E701B091E8012C
:10022800159711F00C946E01E0E0E093E701E0937C
:10023800E801E091CF01F091D0016091D101709176
:10024800D2010E942E040E944204E093D301F0934D
:10025800D4016093D5017093D601E0E0E093CB011F
:10026800E093CC01E093CD01E093CE01E093CF0180
:10027800E093D001E093D101E093D201A091D301A2
:10028800B091D4018091D5019091D601E0E0F0E0E1
:1002980060E87EE30E94650619F010F00C94600196
:1002A80044245524E1E0F0E04F01E2E2F1E0FBBD37
:1002B800EABDF9BDE8BD05C0E1E0F0E02F01882402
:1002C8009924E0E0E093D301E093D401E093D501D1
:1002D800E093D601E991EFBFF991E991B991A9911C
:1002E80099918991799169911990099018950A9233
:1002F8001A926A937A938A93AA93BA93EA93FA938F
:10030800EFB7EA93E091EE01A3EBB1E0F0E00E94D1
:100318008D06AE0FBF1FE5B1FF27662777270E941E
:1003280048050E949806A091EE01AF5FA093EE01E8
:10033800A63018F0E0E0E093EE01E091EE01E05A1B
:10034800E7B98BE18A95F1F7369AE991EFBFF99110
:10035800E991B991A9918991799169911990099037
:100368001895E0E0EBBBEABBE4E1E8BBE8E2E7BBF9
:10037800E0E0E5BBE4BBE2BBE0E3E1BBE2EAEFBD02
:10038800EBE1EEBDE0E0EDBDECBDE9E0E7BDE4EC9E
:10039800E6BDE0E0F0E0FBBDEABDF9BDE8BDE9BFC0
:1003A800E0E6E7B9EEECE6B9A0E10E94D303E0E0AD
:1003B800EBB9E0E9EAB9E6E8E0BDE0E0E0BDE3E397
:1003C800E9B97894E0E2EBBFE0E4E4BFC59A042C15
:1003D800052811F40C94CA020E9439040E944B04A7
:1003E8000E9456049DD1A0E6B1E00E946E04AFE6DB
:1003F800B1E00E947504E0E0F0E064E373E40E9479
:10040800A206A091C301B091C4018091C501909149
:10041800C60112D1E093D701F093D8016093D901B6
:100428007093DA010E947D040E94860448F40E94B9
:100438007D040E948D0409F010F40C94240201C07C
:1004480009C0E0E0E093D701E093D801E093D90137
:10045800E093DA01E091D701F091D8016091D901D8
:100468007091DA010E9494040E9482050E949D0402
:100478000E9494040E94A6040E94650609F010F4E4
:100488000C944A020E94A6040E949D04A091E601D1
:10049800AA234AF4E0E0E093E301E093E401E09367
:1004A800E501E093E601E091E301F091E401609158
:1004B800E5017091E6010E940F05FBBDEABDE0E091
:1004C800F0E06CE073E40E94A206A091C701B0912D
:1004D800C8018091C9019091CA01AED0E093DB01B7
:1004E800F093DC016093DD017093DE010E94AB04A0
:1004F8000E94860448F40E94AB040E948D0409F00F
:1005080010F40C94880201C009C0E0E0E093DB011C
:10051800E093DC01E093DD01E093DE01E091DB0193
:10052800F091DC016091DD017091DE010E94B4045C
:100538000E9482050E94BD040E94B4040E94A60481
:100548000E94650609F010F40C94AE020E94A604FD
:100558000E94BD04A091E201AA234AF4E0E0E093DE
:10056800DF01E093E001E093E101E093E201E09133
:10057800DF01F091E0016091E1017091E2010E94D8
:100588000F05F9BDE8BD0E94C60421CF082C092833
:1005980061F0E4E9F3E0ACE7B1E0F0D0AAE8B1E05B
:1005A8000E946E040E94C604F1CF0A2C0B2811F495
:1005B8000C941E03C39AB4D0A7E9B1E0DFD00E941F
:1005C80039040E944B040E945604E0E0EA93A1E03B
:1005D80096D0A6EAB1E00E947504E091ED01F0E042
:1005E800EC34A0E0FA0731F4EAB5FBB53596FBBD6B
:1005F800EABD1DC0E235A0E0FA0731F4EAB5FBB563
:100608003597FBBDEABD13C0E434A0E0FA0731F426
:10061800E8B5F9B53597F9BDE8BD09C0E535A0E0FD
:10062800FA0729F4E8B5F9B53596F9BDE8BD0E9491
:10063800C604BBCFCCCEFFCF0E94A7066497AC8977
:10064800BD898E899F89E88DF98D6A8D7B8D0E9481
:100658007B05E88BF98B6A8B7B8BADECBCEC8CE46F
:100668009DE30E94D205EC87FD876E877F87A88966
:10067800B9898A899B89EAE0F7ED63EA7CE30E94FD
:10068800D205A885B9858A859B850E948205E88759
:10069800F9876A877B87A7E1B7EB81ED98E30E942A
:1006A800D205EC83FD836E837F83AC85BD858E8503
:1006B8009F850E9482050E949D066C960895AA93C4
:1006C800E5B3EF70AE2FE881E07FEA2BE5BB85E06C
:1006D8008A95F1F7AA9A8DE08A95F1F7AA988DE0A4
:1006E8008A95F1F787C0AA93A881E9DFE881E295A6
:1006F800E883A881E4DF85E88A95F1F77BC0AA93AF
:10070800E881F0E0E151FE4FE081A981AE0FEBDF17
:10071800E981E093F301E881E093F40122960895DA
:10072800A2E00E94CA04ACE0DEDFA1E00E94CA0495
:10073800E0E0E093F401E093F3010895AA93A8811F
:10074800AA3031F0E091F501A091F301AE1760F005
:10075800E0E0EA93A091F401AF5FA093F401CFDF4A
:10076800A881AA3009F446C0E091F301EF5FE09355
:10077800F301A89AA881B7DFA8983CC0BA93AA93B6
:100788001A93A981BA81ED91A983BA831E2FE0300B
:1007980019F0A12FD3DFF5CF188123960895AA93D6
:1007A800E4B3E06FE4BBA29AA09AA19AAA98A89889
:1007B800A998E881E093F501E058E093F101E88118
:1007C800E054E093F2010E94C6040E94D0040E9403
:1007D800D0040E94D004A0E272DF88EC90E0019778
:1007E800F1F7A8E280DFA4E07EDFA5E87CDFA6E0E1
:1007F8007ADF96DF21960895BA93AA93A991B991C1
:10080800E991F99130962AF4E095F09531966DE2E8
:100818006D93E89480E197E20DD088EE93E00AD0DA
:1008280084E6992707D08AE005D06E2F10D0662776
:100838006C9308956627E817F90720F06395E81B7D
:10084800F90BC9F7662311F416F008956894605DF2
:100858006D930895A091CB01B091CC018091CD0109
:100868009091CE010E9482050895E091B701F09120
:10087800B8016091B9017091BA010895DF01CB0107
:10088800E0E0F0E060E271E40E9420060895A091A3
:10089800B301B091B4018091B5019091B6010E9465
:1008A8008205ECCFA0E0B0E080E89FE30E948205DB
:1008B800A9EEB1E00E940F05ED93FC93E091E901E8
:1008C800F091EA01FA93EA93A091EB01B091EC015F
:1008D8000C9400040E94C203E0E0EA93A1E00C94A7
:1008E80083030E94C203A091EB01B091EC010C9428
:1008F800C203A091D701B091D8018091D9019091FC
:10090800DA010895E0E0F0E060E87FE30E94650620
:100918000895E0E0F0E060E87FEB0E946506089546
:10092800A091E301B091E4018091E5019091E60185
:100938000895E093E301F093E4016093E501709377
:10094800E6010895E0E0F0E061E973E40895A0911C
:10095800DB01B091DC018091DD019091DE01089509
:10096800A091DF01B091E0018091E1019091E20155
:100978000895E093DF01F093E0016093E101709343
:10098800E2010895A4E1B0E00C94D8040E94770332
:10099800A3E0B0E00C94D804A0E30E94630388ECC1
:1009A80090E00197F1F70895109639F080ED97E0FF
:1009B8000197F1F7A8951197C9F70895552342F4BF
:1009C800503811F4E0FF04C03196691F791F6BF0AD
:1009D80050E8572711F45F93CFC05F3F31F0660F9F
:1009E800000C57956795752F08955F9300200AF0BE
:1009F800CFC0C8C050E8192E1522880F991F952717
:100A0800550F879550E8072E0522660F771F752723
:100A1800550F67950895689401C0E8945F93F2DFD5
:100A2800703818F07F3F08F4A7C056E1571BAAF4A6
:100A3800519558300EF4593030F0EFEFFFEF6FEF6B
:100A48007FE777F91AC077275523B9F0EE0FFF1F14
:100A5800661F771F5A95D1F710C07727583028F0AE
:100A6800EF2FF62F672F5850F9CF552331F0769591
:100A78006795F795E7955A95D1F700200AF441D183
:100A88005F910895689401C0E89430976040704081
:100A9800B1F0002426F0772312F4009432D1172EF7
:100AA8007EE1112032F07A95EE0FFF1F661F111CB0
:100AB800F9CFEF2FF62F612D5F938ADF5F910895AD
:100AC8004F93AF01FD01DA01AB01BC01CA01402D12
:100AD800012C142E4F910895EA0FFB1F681F0895EB
:100AE800E095F0956095EF5FFF4F6F4F08955F9326
:100AF80081DF903871F150E8152604C05F937ADFE2
:100B0800903839F1703821F1572F591B2BF112F415
:100B1800D7DFFACF583118F0AA27BB2788275830D3
:100B280028F0AB2FB82F88275850F9CF552329F034
:100B38008695B795A7955A95D9F7502D512572F0F6
:100B4800CBDF38F46795F795E795739513F420C0D4
:100B5800B7DF3EDF5F910895D8F7FBCFEA1BFB0BA9
:100B6800680B51F010F40094BBDF662392F3EE0F8C
:100B7800FF1F661F7A95CBF7EE27FF276627772793
:100B88005F910895EFEFFFEF6FE77FEF5F910895B3
:100B9800EFEFFFEF6FE77FE75F9108955F932ADF3D
:100BA800703851F3903841F301240894791F23F4E5
:100BB8001CF300203AF3ECCF0F921F932F933F932F
:100BC8004F93112722279927689FA0018F9F302DC7
:100BD800410D591F6B9F300D411D591F8E9F27D006
:100BE800BF9F25D06A9F23D0BE9F1DD0AF9F1BD02B
:100BF800AE9F110D291F391F491F591FE32FF42FCD
:100C0800652F522F4F913F912F911F910F9066237F
:100C18002AF0550FEE1FFF1F661F02C073954BF297
:100C2800CDDE5F910895100D211D391F02C0200DE2
:100C3800311D491F591F08955F93DCDE703821F478
:100C480011200AF49FCFA4CF903809F495CF01243E
:100C58000894970B1BF4D4F30020F3CF792F1F933C
:100C68002F933F934F93112411272227332744278B
:100C7800552790E2AE17BF078607410730F0AE1B35
:100C8800BF0B860B410B089401C08894551F221F87
:100C9800331F111CAA1FBB1F881F441F9A9551F7A9
:100CA800F901612D4F913F912F911F91662332F0E9
:100CB800550FEE1FFF1F661F7A9543F27FDE5F9187
:100CC800089599239AF0772342F0971748F029F46A
:100CD800AE17BF07860720F031F0989488940895DE
:100CE8009894089408951894889408957723C2F7DF
:100CF800971798F3A9F7EA17FB07680788F399F39A
:100D0800ECCFF09560957095E195FF4F6F4F7F4F51
:100D18000895EE0FFF1FEE0FFF1F0895FE2FFF0F20
:100D2800FF0B6F2F7F2F0895ED93FD936D937C93A9
:100D38000895E883F9836A837B8308957A936A9395
:100D4800FA93EA9308959A938A93BA93AA93089583
:00000001FF
