:060000000C9449000C9471
:1000060000000C9400000C9400000C9400000C946A
:1000160000000C9400000C9400000C9400000C945A
:1000260000000C9400000C9400000C9400000C944A
:1000360000000C9476000C9400000C9400000C94C4
:1000460000000C9400000C9400000C9400007465F1
:100056006D703D004C55583D00766F3D0000010027
:100066002D4E414E00494E46000080C006006001FC
:100076005400050066015A0004006B015F00010090
:10008600930164000200970170000000F894EE27C7
:10009600ECBBF1E0FBBFEBBFE5BF8DE0A2E0BB2709
:1000A600ED938A95E9F780E094E0A0E6ED93019759
:1000B600E9F7E2E7F0E085919591009761F0A59167
:1000C600B59105901590BF01F00105900D9201972D
:1000D600E1F7FB01F0CFEFE5EDBFE4E0EEBFC0E6F0
:1000E600D1E00C949B008A93AA93BA93EA93FA936D
:1000F600EFB7EA93E52DAFE6B1E0F0E0EE0FFF1FB4
:10010600AE0FBF1FE4B1F5B1ED93FC935394E2E05B
:10011600E51509F4552457B883E08A95F1F7369A20
:10012600E991EFBFF991E991B991A9918991189552
:10013600EAE6E3BFE0E0E2BFECBFEDECFCEC6CE42A
:100146007FEBE0937B01F0937C0160937D017093DC
:100156007E01E0E0F0E060E87EEBE0937F01F09363
:1001660080016093810170938201E0E0F0E060E03D
:100176007EEBE0938301F093840160938501709395
:100186008601BB9AE7B9EEE8E6B9E0E0E0BFA0E198
:100196000E94B8020E9469027894369AE0916F0133
:1001A600F0917001A3E7B1E0662777270E94A303C9
:1001B6000E94E604E0917101F091720166277727AB
:1001C6000E94A303ABEFBFE38CE990E40E942604F0
:1001D600E0938701F09388016093890170938A0107
:1001E6000E94EB0238F4E0E0F0E06AE774E40E9473
:1001F600FA027FC00E94EB0248F00E940303E0E08F
:10020600F0E862EA74E40E94B90408F013C00E94A0
:100216000C03A0917B01B0917C0180917D019091AE
:100226007E010E942604A0E0B0E08DEC94E40E94DA
:1002360015035FC00E940303E0E0F0E06FEA74E498
:100246000E94B90448F00E940303E0E0F0E869E088
:1002560075E40E94B90408F013C00E940C03A09133
:100266007F01B091800180918101909182010E946D
:100276002604A0E0B0E88BE394E40E94150339C09D
:100286000E940303E0E0F0E46CE175E40E94B90427
:1002960048F00E940303E0E0F0EC6AE575E40E9492
:1002A600B90408F013C00E940C03A0918301B09119
:1002B600840180918501909186010E942604A0E028
:1002C600B0EC83EF93E40E94150313C00E9403036E
:1002D600E0E0F0E666E875E40E94B90409F008F487
:1002E60008C0E0938B01E0938C01E0938D01E093CD
:1002F6008E01E0918B01F0918C0160918D017091DE
:100306008E01E0938F01F0939001609391017093B9
:1003160092010E941803E0E0F0E060E870E40E94B9
:1003260074040E946A03ECBF0E941803E8EFFFEF13
:1003360069EF7EE30E942604E0937701F09378014B
:100346006093790170937A010E942103D3010E9480
:10035600EB01E0E0EA93A0E00E945902A0E6B1E0DA
:100366000E949602D3010E949602E0E00E942603B4
:10037600A6E6B1E00E949602E0918F01F09190010D
:1003860060919101709192010E942103D4010E9413
:10039600EB01E4E00E942603D4010E949602E9E004
:1003A6000E942603ABE6B1E00E9496020E940C036F
:1003B6000E942103D5010E94EB01D5010E949602FD
:1003C600A2E3B0E00E9433030E946902E7CEFFCFAA
:1003D600BA93AA93A991B991E991F99130962AF421
:1003E600E095F09531966DE26D93E89480E197E2A1
:1003F6000DD088EE93E00AD084E6992707D08AE0EC
:1004060005D06E2F10D066276C9308956627E817DF
:10041600F90720F06395E81BF90BC9F7662311F479
:1004260016F008956894605D6D930895FFE0FA955F
:10043600F1F70895A4B3AF70A4BBA99AA898F6DF04
:10044600AA9AF4DFA3B3AA98F1DFAA9AEFDFAA98D3
:10045600A7FDF5CF0895A07FAB2BA5BBAA9A0E9456
:100466001902AA980E9419020895AA93A998A4B3FA
:10047600A76FA4BBB5B3BF70A881EDDFA881A29515
:10048600EADFA99A0C94E902AA9A0E941902E3B338
:10049600AA980E941902E07F08950E941902F4DFCB
:1004A600AE2FF2DFA998E295EA2B0895AA930E944F
:1004B6001D02E881F0E0E956FE4FE081A981AE0F0A
:1004C6000E9438024980D880229608950E941D0213
:1004D600A2E00E9438020E941D02ACE00E9438028F
:1004E6000E941D02A1E00E943802E0E0DE2E4E2EA0
:1004F6000895AA93EF93FF93A8816894AA3019F000
:10050600E8944C1430F0D394E0E0EA93AD2DCEDFBE
:1005160036F043948FDFA89AA8810E943802FF9193
:10052600EF910C94E902BA93AA931A93A981BA811E
:10053600ED91A983BA831E2FE03019F0A12FD9DFE0
:10054600F5CF188123960895AA27BB271197F1F7AF
:100556000895AA93A998A4B3A76FA4BBB5B3BF7017
:10056600A8810E942E02A99A31C0AA93AA98A89897
:10057600C880E881E058E0939901E881E054E0936F
:100586009A010E942A030E942A030E942A03DCDFA2
:10059600A0E2DFDFD9DFA8E20E942F03A4E00E94D9
:1005A6002F03A5E80E942F03A4B3AF70A4BBA99A9A
:1005B6000E945002E53011F0E0E008C00E941D02E2
:1005C600A6E00E9438020E946902E1E021960895A1
:1005D600A0918701B09188018091890190918A014B
:1005E600E0E0F0E068E474E40E94B9040895E09362
:1005F6008B01F0938C0160938D0170938E010895A9
:10060600A0918701B09188018091890190918A011A
:100616000895E0918701F0918801609189017091B8
:100626008A0108950E94D603E2CFA0917301B0918A
:100636007401809175019091760108950E946C0372
:10064600FA93EA930895EA93A1E00C9459020E9462
:10065600A702A0E30C94AC020E9438020C94A702F5
:10066600109639F080ED97E00197F1F7A89511976C
:10067600C9F70895552342F4503811F4E0FF04C039
:100686003196691F791F6BF050E8572711F45F9375
:10069600C8C05F3F31F0660F000C57956795752F00
:1006A60008955F9300200AF0C8C0C1C050E8192E13
:1006B6001522880F991F9527550F879550E8072E05
:1006C6000522660F771F7527550F6795089568945D
:1006D60001C0E8945F93F2DF703818F07F3F08F4AA
:1006E600A0C056E1571BAAF4519558300EF4593064
:1006F60030F0EFEFFFEF6FEF7FE777F91AC077275C
:100706005523B9F0EE0FFF1F661F771F5A95D1F7D5
:1007160010C07727583028F0EF2FF62F672F585044
:10072600F9CF552331F076956795F795E7955A9564
:10073600D1F700200AF43AD15F910895689401C078
:10074600E894309760407040B1F0002426F077239B
:1007560012F400942BD1172E7EE1112032F07A95F7
:10076600EE0FFF1F661F111CF9CFEF2FF62F612D1D
:100776005F938ADF5F9108954F93AF01FD01DA0120
:10078600AB01BC01CA01402D012C142E4F910895D6
:10079600EA0FFB1F681F0895E095F0956095EF5FDF
:1007A600FF4F6F4F08955F9381DF903839F17038AE
:1007B60021F1572F591B2BF112F4DEDFFACF5831F6
:1007C60018F0AA27BB278827583028F0AB2FB82F58
:1007D60088275850F9CF552329F08695B795A795C0
:1007E6005A95D9F7502D512572F0D2DF38F4679516
:1007F600F795E795739513F420C0BEDF45DF5F914B
:100806000895D8F7FBCFEA1BFB0B680B51F010F4E9
:100816000094C2DF662392F3EE0FFF1F661F7A95E0
:10082600CBF7EE27FF27662777275F910895EFEF2F
:10083600FFEF6FE77FEF5F910895EFEFFFEF6FE751
:100846007FE75F9108955F9331DF703851F39038F9
:1008560041F301240894791F23F41CF300203AF392
:10086600ECCF0F921F932F933F934F93112722277D
:100876009927689FA0018F9F302D410D591F6B9FAF
:10088600300D411D591F8E9F27D0BF9F25D06A9FCF
:1008960023D0BE9F1DD0AF9F1BD0AE9F110D291F29
:1008A600391F491F591FE32FF42F652F522F4F91E0
:1008B6003F912F911F910F9066232AF0550FEE1F3F
:1008C600FF1F661F02C073954BF2D4DE5F91089539
:1008D600100D211D391F02C0200D311D491F591F42
:1008E60008955F93E3DE703821F411200AF49FCF58
:1008F600A4CF903809F495CF01240894970B1BF4E4
:10090600D4F30020F3CF792F1F932F933F934F9368
:1009160011241127222733274427552790E2AE17A3
:10092600BF078607410730F0AE1BBF0B860B410B96
:10093600089401C08894551F221F331F111CAA1F3B
:10094600BB1F881F441F9A9551F7F901612D4F91DE
:100956003F912F911F91662332F0550FEE1FFF1F17
:10096600661F7A9543F286DE5F91089599239AF081
:10097600772342F0971748F029F4AE17BF0786078A
:1009860020F031F0989488940895989408940895E6
:100996001894889408957723C2F7971798F3A9F7C0
:1009A600EA17FB07680788F399F3ECCFF095609593
:1009B6007095E195FF4F6F4F7F4F08956F2F660F2C
:1009C600660B762F0895ED93FD936D937C930895B2
:00000001FF
