:020000000C945E
:1000020034000C9464000C946E000C9400000C9468
:1000120000000C9400000C9400000C9400000C945E
:1000220000000C9400000C9400000C9400000C944E
:1000320000000C9400000C9400000C9400000C943E
:1000420000000C9400000C9400000C9400000C942E
:1000520000003F065B4F666D7C077F6F000001006A
:1000620005005E000000F894EE27ECBBF1E0FBBF58
:10007200EBBFE5BFF8E1F1BDE1BD8DE0A2E0BB273A
:10008200ED938A95E9F780E094E0A0E6ED9301977D
:10009200E9F7E0E6F0E085919591009761F0A5918E
:1000A200B59105901590BF01F00105900D92019751
:1000B200E1F7FB01F0CFEFE5EDBFE4E0EEBFC0E614
:1000C200D1E00C947900EA93EFB7EA935394EAE013
:1000D200E51511F4E9E05E2E07C0EA93EFB7EA9363
:1000E200E0E0E51508F45A94E991EFBFE99118951B
:1000F2002A978AE0A0E0B0E0E4E5F0E00E94AA00DE
:10010200E0E0E5BBEFEFE4BBECE0E2BBE0E0E1BB4B
:10011200EBB7E06CEBBFEAE0E5BFE0E0E4BFE0ECA8
:10012200EABF7894E52DF0E0DE01AE0FBF1FEC913F
:10013200E5BBA4E6B0E00E94A000F4CFFFCF10968A
:1001420039F08AEF90E00197F1F7A8951197C9F776
:100152000895AC0FBD1F05900D928A95E1F70895A1
:00000001FF
