:0A0000000C942A000C9400000C94EC
:10000A0000000C9400000C9400000C9400000C9466
:10001A0000000C9400000C9400000C9400000C9456
:10002A0000000C9400000C9400000C9400000C9446
:10003A0000000C9400000C9400000C9400000C9436
:10004A0000000C9400000C940000F894EE27ECBB1E
:10005A00F1E0FBBFEBBFE5BFF8E1F1BDE1BD8DE02B
:10006A00A2E0BB27ED938A95E9F780E094E0A0E649
:10007A00ED930197E9F7EFE5EDBFE4E0EEBFC0E6E7
:10008A00D1E00C944800EFE7E4BBB89AB09B02C0F9
:10009A00E6E0E5BBB09B02C0EBE5E5BBF7CFFFCFDF
:00000001FF
