:080000000C9482000C94AF0087
:100008000C94B4000C9400000C9400000C940000B4
:100018000C9400000C9400000C9400000C94000058
:100028000C9400000C94C1000C9400000C94E500A2
:100038000C944B010C9400000C9400000C940000EC
:100048000C94B9000C9400000C940000000000000F
:100058000000000073747265616D203530302069CE
:100068006E66202D760057656C636F6D6500503D98
:10007800256420493D256620443D256600535243AA
:100088003D20256420646567004449533D2025646C
:100098002064656700736574706F696E743D2566CA
:1000A800004572726F723D25660073747265616DEA
:1000B8002035303020696E662070340001002D4EE6
:1000C800414E00494E46000080C02D4E414E000072
:1000D80001000200540006000400560012006001EE
:1000E8005C00080072016E0012007A01B200010083
:1000F8000E02C40002001202D0000000F894EE279D
:10010800ECBBF1E0FBBFEBBFE5BF8DE0A2E0BB2796
:10011800ED938A95E9F780E094E0A0E6ED930197E6
:10012800E9F7E8EDF0E085919591009761F0A591E8
:10013800B59105901590BF01F00105900D920197BA
:10014800E1F7FB01F0CFEFE5EDBFE4E0EEBFC0E67D
:10015800D1E00C94EB01EA93FA93E1E0F0E009C0F6
:10016800EA93FA93E2E0F0E004C0EA93FA93E3E05A
:10017800F0E02F01F991E9911895AA93EA93FA937F
:10018800EFB7EA931A930A9300E010E0ECB1E0931A
:10019800C001A091C001AD3031F400E010E0E0E012
:1001A800E093C10108C0F801EF53FE4FA091C001D0
:1001B800A0830F5F1F4FE0E0E093C0010991199100
:1001C8001EC0AA93EA93FA93EFB7EA93E0910D025F
:1001D800E030A9F0E150E0930D02E0910C02EF5FEE
:1001E800E0930C02E150F0E0ED5FFD4FE081ECB9E7
:1001F800A0910C02A83019F4E0E0E0930C02E99118
:10020800EFBFF991E991A9911895AA93A0910D02D0
:10021800A830E1F3F894E0910D02E03011F45D9913
:1002280018C0E0910B02EF5FE0930B02E150F0E0A1
:10023800ED5FFD4FA881A083A0910B02A83019F4AF
:10024800E0E0E0930B02E0910D02EF5FE0930D0216
:1002580002C0E881ECB978940C949704BA93AA93F5
:100268001A9310E0A981BA81EE27A10FBE1FEC9165
:10027800E03049F0A981BA81EE27A10FBE1FAC91E9
:10028800C4DF1F5FEFCFADE0C0DF0C9467048A9333
:10029800AA93BA93EA93FA93EFB7EA93F301ACE817
:1002A800B1E0EE0FFF1FAE0FBF1FE4B1F5B1ED9344
:1002B800FC93F30131963F01E6E0F0E0E615F7051F
:1002C80011F46624772467B88BE18A95F1F7369A9A
:1002D800E991EFBFF991E991B991A991899118959F
:1002E8000E943A0D60970E945F08A88DB98D8A8D8B
:1002F8009B8D0E9464080E945F08A091F101B09153
:10030800F2018091F3019091F4010E947F0BA8EB18
:10031800BEE185E09EE30E94CF0BE093E901F093F4
:10032800EA016093EB017093EC010E946B08AC89C1
:10033800BD898E899F890E94CF0BE887F9876A87D4
:100348007B87A091F501B091F6018091F70190911A
:10035800F8010E945F080E94780BDF01CB01E8EBEF
:10036800FEE165E07EE30E941D0CE093ED01F09351
:10037800EE016093EF017093F0010E9474080E94EF
:100388007908E885F9856A857B850E9480080E943E
:100398007F0B0E9485080E947F0B0E94300D0E94EF
:1003A8006B08E093F101F093F2016093F30170930D
:1003B800F4010E945F08E093F501F093F601609361
:1003C800F7017093F8010E948A08A0960895E0E06A
:1003D800EABBEBBBE7BBE5E1E8BBE0E0E4BBE5BBC0
:1003E800E0E3E1BBECE0E2BBE2EAEFBDEAE1EEBD4F
:1003F800E0E0EDBDECBDEEE4E7BDEFE1E6BDE0E039
:10040800EBBDEABDE9BDE8BDE9BFEBB7E06EEBBF08
:10041800EAE0E5BFE0E0E4BFE0EEEABFE0E0EBB928
:10042800E8EDEAB9E6E8E0BDE0E0E0BDE3E3E9B91C
:10043800E0E0E7B9EEE8E6B9E0E0E0BFA0E10E945D
:100448006A047894369AADE0E0DE0E948D08A0E652
:10045800B1E004DFA2E7B1E00E9491080E942B04FA
:10046800F201309709F040C00E949408E091900191
:10047800F09191010E94A808E093D501F093D6016C
:100488006093D7017093D801E0919201F0919301A4
:100498000E94A808E093D901F093DA016093DB0188
:1004A8007093DC010E94B508E6E7F0E0FA93EA935E
:1004B800F4010E94BA080E94BF08E091D901F091A6
:1004C800DA016091DB017091DC010E94350D8CE04E
:1004D8000E94BF076096A8E9B1E00E9491080E94B7
:1004E800CA080E942B04B4C0E130A0E0FA0789F5DD
:1004F8000E94CF080E94EC080E94F1080E940E0991
:100508000E94CF080E9413095F010E94F1080E940F
:1005180013096F010E94B508E5E8F0E0FA93EA9341
:10052800F5010E94BA080E941C090E9421090E9434
:100538002609E1E9F0E0FA93EA93F6010E94BA0885
:100548000E941C09ACEAB1E00E9491080E942B04A9
:100558007FC0E230A0E0FA07A9F50E942B090E94AB
:100568004A090E94B5080E9491090E9421090E9427
:1005780026090E94A009ACEAB1E00E945904ACED3A
:10058800B5E00E94CF0A0E94AF096CF40E94BC0932
:100598000E94C5090E94CF090E940E09ECE3F0E011
:1005A800FBBDEABD0EC0A091E801AA2352F40E9447
:1005B800D9090E94CF090E94EC08ECE3F0E0F9BDEC
:1005C800E8BD46C0E330A0E0FA0709F041C00E9448
:1005D8002B090E944A09AAE7B1E040DE0E94B5084B
:1005E8000E9491090E9421090E9426090E94A009DF
:1005F800ACEAB1E00E9491080E94AF09DCF4E091F6
:100608009401F09195010E94E909DF01CB01E3E330
:10061800F3E36BE870E40E941D0CA0E0B0E082E810
:1006280092E40E947F0B0E940E09ECE3F0E0FBBD10
:10063800EABD0EC0A091E801AA2352F40E94D9098C
:100648000E94CF090E94EC08ECE3F0E0F9BDE8BD98
:1006580007CFFFCFBA93AA93E991F99130971AF48B
:10066800E095F095319608950E94EE09E0E0EA835E
:10067800EFE3EB831A930A93EB85FC85EF3FAFEF2B
:10068800FA0739F40E94F509A6ECB0E00E94F307D6
:10069800A9C0EF3FAFE7FA0739F40E94F509A7ECC4
:1006A800B0E00E94F3079EC0AC85AA2362F4E985F6
:1006B800FA856B857C850E94D90A0E94FA090E94F6
:1006C800FF09EDE2EC93A885A73010F0E6E0E88793
:1006D8001885E12F1150E03039F00E94060A0E9477
:1006E8000B0A0E94120AF5CF0E94170A0E947F0B7C
:1006F8000E94FA0910E0E0E0F0E060E87FE30E9481
:10070800120A0E94170A0E94620C88F00E94060AC8
:100718000E94200A0E94120A1F5F173238F00E94B6
:10072800F509ABECB0E00E94F3075CC0EACF1030EB
:1007380029F40E94FF09E0E3EC9329C0E12F11504E
:10074800E03029F10E94060A0E940B0A0E94270A3B
:10075800DF01CB010E944A080E94120A0E94170A70
:100768000E941D0C0E940C0B0E2F0E94FF09E02F07
:10077800E05DEC93E02FF0E00E94060A0E94E90990
:100788000E94CF0B0E942E0A0E94330AD7CFE88519
:10079800E03021F10E94FF09EEE2EC93E885E15098
:1007A800E887EF5FD9F00E942E0A0E94200A0E9473
:1007B800FA09E985FA856B857C850E940C0B0E2F5A
:1007C8000E94FF09E02FE05DEC93E02FF0E00E942B
:1007D8002E0A0E94E9090E94330AE0CFAE81BF8148
:1007E800E0E0EC93198108812D960895AA93E5B36A
:1007F800EF70AE2FE881E07FEA2BE5BB8DE08A95AC
:10080800F1F7979A8DE08A95F1F797988DE08A9598
:10081800F1F789C0AA93A881E9DFE881E295E88326
:10082800A881E4DF85E88A95F1F77DC0AA93E8817D
:10083800F0E0EE5EFD4FE081A981AE0FEBDFE981CC
:10084800E0931602E881E093170222960895A2E049
:100858000E94380AACE0DEDFA1E00E94380AE0E03E
:10086800E0931702E09316020895AA93A881AA308C
:1008780031F0E0911802A0911602AE1760F0E0E0A6
:10088800EA93A0911702AF5FA0931702CFDFA88168
:10089800AA3009F448C0E0911602EF5FE09316020F
:1008A800A99AA881B7DFA9983EC0BA93AA931A93C8
:1008B800A981BA81ED91A983BA831E2FE03019F07E
:1008C800A12FD3DFF5CF188123960895AA93E4B317
:1008D800E06FE4BB8F9AA19AA09A9798A998A898D4
:1008E800E881E0931802E058E0931402E881E054AC
:1008F800E0931502A4E1B0E00E94CF0A0E943E0AEC
:100908000E943E0A0E943E0AA0E270DF88EC90E056
:100918000197F1F7A8E27EDFA4E07CDFA5E87ADFA3
:10092800A6E078DF94DF21960895BA93AA931A93E4
:100938000A93AA81BB8112960E94170D309729F15C
:10094800AA81BB8114960E94170D8F01309761F020
:100958000230E0E01E0780F0F80131978F01AA818C
:10096800BB811496ED93FC93AA81BB8112960E94D9
:10097800460A3197AC81A083AA81BB810E94170DDA
:10098800FF2312F00E94460A06C0AA81BB81EFEF3E
:10099800FFEFED93FC9319810881259608950E9435
:1009A800EE09E0E8EA83EFE3EB830E94580DEE8559
:1009B800FF85EF3FAFEFFA0749F4E885F985FA9329
:1009C800EA93A2EDB0E00E94F307BBC0EF3FAFE7A8
:1009D800FA0749F4E885F985FA93EA93A3EDB0E0BC
:1009E8000E94F307AEC0AB85A73010F0E6E0EB87B6
:1009F8001B85E12F1150E03019F00E944C0AF9CF05
:100A0800EC85FD856E857F850E944C0D21F430E0D4
:100A18000E944C0A2FC03B850E94520A09F008F434
:100A28000AC00E944C0A0E94520A20F00E945A0AE8
:100A38003F5FF9CF0FC00E94520A50F40E9480080D
:100A4800E0E0F0E060E271E40E9464083150F3CF26
:100A58000E944C0AEC85FD856E857F850E94270AD9
:100A6800EC87FD876E877F870E94520A18F00E94E4
:100A78005A0A3F5F10E0EB85E117B8F10E9485083C
:100A88000E940B0A0E94270ADF01CB010E944A0834
:100A9800EC83FD836E837F830E9480080E941D0C77
:100AA8000E940C0B0E2F0E94600AE02FE05DEC9371
:100AB800E02FFF27662777270E94450B0E948508AD
:100AC8000E94CF0B0E9480080E943F0D0E94780B65
:100AD800EC87FD876E877F87E12F1F5FE03059F62F
:100AE8000E94600AEEE2EC93C6CF0E94670A319733
:100AF800AA85A08330302CF43195A885B985EDE21C
:100B080003C0A885B985EBE2EC930E94670A0E94AE
:100B1800670A3197BF01A32FEAE00E94AB0CE05DA2
:100B2800DB01EC930E94670A3197BF01A32FEAE02B
:100B38000E94ED0CE05DDB01EC93A885B985E0E04F
:100B4800EC930E945F0D60960895BA93AA93EF976D
:100B580061970E94560D10E0FE01E85AFF4F019080
:100B6800F081E02DE887F987FE01EA5AFF4F0190EE
:100B7800F081E02DEE83FF83AE81BF81E0E0F0E0FD
:100B8800ED93FC93DE01A45ABF4F0E94460A3197A9
:100B9800E4912E2FE03009F4E5C1E12FE03039F47B
:100BA800253211F411E002C00E946D0ADAC1E13069
:100BB800C1F4253219F40E946D0AD2C112E0E0E0B6
:100BC800ED8B00E02D3211F401E0CBC12B3219F48A
:100BD800EBE2ED8BC6C1203219F4E0E2ED8BC1C126
:100BE80002C0E23039F450E013E0203311F4006819
:100BF800B8C102C0E33091F4203310F02A3308F072
:100C080007C0AAE05A9F502DE22FE0535E0FA9C1FA
:100C180040E02E3211F414E0A4C10FC0E43099F47E
:100C2800203310F02A3308F008C00062AAE04A9F77
:100C3800402DE22FE0534E0F94C12C3619F4026078
:100C480015E08FC103C0E53009F08BC1E22FE33610
:100C580059F40E94740A0E947B0A0E94740AA481B3
:100C6800AA930E94820A7CC1E53411F0E53609F4A2
:100C780003C0E63609F048C0FE017696EE87FF8786
:100C88000E94880A0E941B0D0E948F0A0E94940AE3
:100C9800AD85AA2332F0AD89AB3259F0A03281F08C
:100CA80017C00E94960A0E94D90A0E948F0AEDE294
:100CB800ED8B07FF05C0ED89EA930E94820A08C000
:100CC800EE85FF853196EE87FF873197AD89A08342
:100CD80005FF46E0263651F40E94960A0E94350D1B
:100CE8004A93AB89BC890E94380309C00E94960ABE
:100CF8000E94350D4A932A93AC89BD8950DEFE01C6
:100D080076960E949B0A1EC0E33739F40E94940A23
:100D18000E94A30A0E949B0A0EC0E037C1F40E94F9
:100D2800940A0E94A30AEE87FF87AE85BF850E94BA
:100D38000C081E2F08600F77403011F0411708F09B
:100D480001C0142F40E0E0E0EC8B30E06DC0E436E9
:100D580011F0E93611F4046002C0E537A1F4EAE0C5
:100D6800EC8B01FF08C0E0E0FAEC6AE97BE30E9443
:100D7800A80A1AE022C0E0E1F7E260E070E00E9411
:100D8800A80A15E01AC0E83511F4086003C0E8376E
:100D980009F0E6C0E0E1EC8B01FF08C0E0E0F0E01C
:100DA80060E070E10E94A80A18E007C0E0E0F0E106
:100DB80060E070E00E94A80A14E0403011F00F775C
:100DC80001C041E001FF08C00E94940A0E94880AFD
:100DD80014960E941B0D0FC002FF07C00E94940AC0
:100DE8000E94A30A0E94980C06C00E94940A0E94BE
:100DF800A30A66277727EA87FB876C877D8702FF28
:100E080012C0AD85AA2342F40E94960A0E948A0C59
:100E18000E948F0AEDE2ED8BED89E03019F01F5F3B
:100E28004F5F01C00B7F342F00FD14C0151710F45D
:100E3800351708F00FC007FF08C002FF04C00B7F7A
:100E48002D89115001C020E301C020E20E946D0AE3
:100E58005150ECCF141790F4006102FF06C00E94B5
:100E6800AD0A09F0515011504150E0E3EA930E9455
:100E7800820A503009F051504150ECCF312FEC89A3
:100E8800E030B9F43030A1F003FF06C0EE85FF85ED
:100E98002591EE87FF8705C0AE85BF852D91AE876A
:100EA800BF870E946D0A503009F051503150EACF87
:100EB8004DC00E94BF0A0E94C80C2E2F2A3030F065
:100EC80003FF02C0295C01C0295A01C0205D04FD4E
:100ED8001FC0213350F40E947408A130E0E0BE071F
:100EE800E0E08E07E0E09E0709F40BC0431740F4EA
:100EF800531710F000FF01C010C020E207FF08C020
:100F080020E3006102FF04C00E94AD0A09F05150BD
:100F18000E946D0A503009F0515031500E94BF0AAA
:100F28000E94F90C0E948F0AEC890E947408FF271E
:100F3800662777270E94C80C0E94A80AE889F989C1
:100F48006A897B890E944C0D09F0B3CF00FF08C065
:100F5800503031F05150E0E2EA930E94820AF8CF13
:100F680010E010CEAE81BF810E94170D0E945D0D6A
:100F7800EF966F960895FF92F82E26970E94580DC7
:100F88000E94C80A309719F4EFEFFFEF23C0DE0183
:100F980016960E94820C8D010E94C80AEE83FF8378
:100FA800E0E0E887E987DE011A960E94820C0E9439
:100FB800170DFA93EA931A930A93E9E9F4E0FA937E
:100FC800EA93DE011A96C1DD9F01AE81BF81E0E0A0
:100FD800EC93F9010E945F0D2A96FF900895BA9349
:100FE800AA93E991F991A991B991CD0105900D9232
:100FF8000020E1F7FC010895BA93AA93A991B99149
:10100800EE27FF276D91662311F03196FBCF0895E7
:10101800BA93AA93AA27BB27E991F99105900020D2
:1010280011F01196FBCFFD0108950E943A0D7B81C6
:101038006A81F981E88177FB770F67FD7160972FE7
:101048009E5781F078F0983190F4AA27BB2788271B
:1010580008948795B795A7959A95D1F7EA23FB2326
:10106800682305C0E8947727EE27FF2766276F7760
:10107800769508F4606877F9A991B9918991999161
:10108800EA17FB076807790797FB08950E943A0D4E
:101098000E942B0D0E9419080E94300D11F436D0C1
:1010A80008C0EEF733D0A0E0B0E080E89FE30E94EC
:1010B800780B24960895EC8DFD8D6E8D7F8D0895A7
:1010C8000E94CF0BEC87FD876E877F870895E0919C
:1010D800E901F091EA016091EB017091EC0108954A
:1010E800A889B9898A899B8908950E94CF0BEC83C6
:1010F800FD836E837F830895AC85BD858E859F852E
:101108000895AC81BD818E819F8108950E94260D2E
:101118000895A4EFB1E00C94CF0A0E945904F9CFC6
:10112800E0918E01F0918F010E94980C0E94450B6E
:10113800DF01CB01E4E1FEEA63E271E40E941D0CE9
:101148000E940E0B4F0108950E94980C0E94450BB7
:10115800DF01CB01EAE9F9E96CEC72E40E941D0CAD
:101168000895E8E9F1E0FA93EA9308950E94980C4B
:101178000E94350D0895E091D501F091D601609156
:10118800D7017091D8010E94350D0895E0E0EA93E7
:10119800A1E00C941A04E0919601F09197010E9445
:1011A800980C0E94450BDF01CB01E3E3F3E36BE806
:1011B80070E40E941D0CA0E0B0E082E892E40E9476
:1011C8007F0BA0E0B0E080E291E40E94CF0B08958D
:1011D8000E940C0BFBBDEABD0895E0919401F091CB
:1011E80095010E94980C0E94450BDF01CB01E3E3B7
:1011F800F3E36BE870E40E941D0CA0E0B0E082E825
:1012080092E40E947F0BA0E0B0E080E291E40E94AB
:10121800CF0B08950E940C0BF9BDE8BD0895AFE807
:10122800B2EC85E79DE30E94CF0B0E940E0B089558
:1012380084E00E94BF0728960895A8E9B1E00E94BB
:101248005904A4CFECEAF1E0FA93EA930895E09107
:101258008C01F0918D010E94980C0E94450BDF01D2
:10126800CB01E4E1FEEA63E271E40E941D0CA0E018
:10127800B0E080E291E40E94CF0BE093DD01F093AF
:10128800DE016093DF017093E0014ACFA0919001E5
:10129800B0919101EFEFF3E00E94C30CA5EDB1E02E
:1012A8000E94980C0E94450B0E94210DA09192016A
:1012B800B0919301EFEFF3E00E94C30CA9EDB1E008
:1012C8000E94980C0E94450B0E94210DE0E0F0E07E
:1012D8006AEF73E4E093E101F093E2016093E301C4
:1012E8007093E401A091E101B091E2018091E301E2
:1012F8009091E401E091DD01F091DE016091DF0160
:101308007091E0010E94780BE093E501F093E6010B
:101318006093E7017093E8010895EDE9F0E0FA932E
:10132800EA93E091DD01F091DE016091DF017091B7
:10133800E0010E94350D7CCFE9EAF0E0FA93EA93E8
:10134800E091E501F091E6016091E7017091E80113
:101358000E94350D6DCF0E942B04A091E501B0913C
:10136800E6018091E7019091E8010E94500D0895EF
:10137800E091E501F091E6016091E7017091E801E3
:1013880008950E94350DF4010E94980C0E94450BA7
:101398000E94350DF0CEA091D901B091DA0180916B
:1013A800DB019091DC010C947401E2DF0E940E0BCA
:1013B800DF010E942E03A5EEB1E0662777270E9481
:1013C800450B0E94210DD4DFDCCF0E94980C0E94AF
:1013D800450B0895BA93AA932497E0E0E883E9833C
:1013E8000895EE81FF81FA93EA930895E987FA87D1
:1013F8006B877C870895AE81BF811196AE83BF83CA
:1014080011970895AA81BB818C819D810895EDEC87
:10141800FCEC6CEC7DE30E94CF0B0895EA83FB8320
:101428006C837D830895EA81FB816C817D81A98528
:10143800BA858B859C850895E0E0F0E060E271E470
:101448000E94CF0B0895A0E0B0E080E09FE30E94E7
:101458007F0B0895A985BA858B859C8508950E9480
:101468003F0D0E94780BC2CF0E940E04A3E0B0E0AB
:101478000C94CF0AA0E30E94FA0388EC90E001974D
:10148800F1F70895ED91FD913196FE93EE9308954D
:1014980038DEE0E0F0E060E271E427CEEC81FD8127
:1014A8006E817F8129DE0E94620C089525DEEDECB5
:1014B800FCEC6CEC7DE304CEA885B9851196A88771
:1014C800B98711970895E885F9853196E887F987EE
:1014D80008952A93AF81B885E985FA850995089515
:1014E800FE01E65AFF4F0190F081E02D08953497F0
:1014F800DE01A65ABF4FED93FC930895AF81B885DE
:10150800E985FA8509950895DE01A65ABF4F0D9021
:10151800BC91A02D0895EA87FB876C877D87089585
:10152800DFDFE5CFEA85FB856C857D850895EE874D
:10153800FF87AE85BF850E9400081E2F0895E4DF4F
:1015480014960E94170D0895E88BF98B6A8B7B8B94
:1015580008950B7FED89EA93DE01A95ABF4F0D90DC
:10156800BC91A02DFE01E75AFF4F0190F081E02DBC
:10157800099550300895E889F9896A897B89AA858F
:10158800BB858C859D850895DE011C960E94820C82
:101598000E94170D0895109639F080ED97E0019795
:1015A800F1F7A8951197C9F70895309760407040F2
:1015B80009F070580895552342F4503811F4E0FFAB
:1015C80004C03196691F791F6BF050E8572711F452
:1015D8005F93CFC05F3F31F0660F000C579567955A
:1015E800752F08955F9300200AF0CFC0C8C050E857
:1015F800192E1522880F991F9527550F879550E8A2
:10160800072E0522660F771F7527550F67950895D2
:10161800689401C0E8945F93F2DF703818F07F3F58
:1016280008F4A7C056E1571BAAF4519558300EF498
:10163800593030F0EFEFFFEF6FEF7FE777F91AC01F
:1016480077275523B9F0EE0FFF1F661F771F5A95AE
:10165800D1F710C07727583028F0EF2FF62F672FD3
:101668005850F9CF552331F076956795F795E7955A
:101678005A95D1F700200AF449D15F9108956894EA
:1016880001C0E894309760407040B1F0002426F023
:10169800772312F400943AD1172E7EE1112032F00C
:1016A8007A95EE0FFF1F661F111CF9CFEF2FF62F4B
:1016B800612D5F938ADF5F9108954F93AF01FD011C
:1016C800DA01AB01BC01CA01402D012C142E4F9147
:1016D8000895EA0FFB1F681F0895E095F09560953F
:1016E800EF5FFF4F6F4F08955F9381DF903871F17F
:1016F80050E8152604C05F937ADF903839F17038C6
:1017080021F1572F591B2BF112F4D7DFFACF58319B
:1017180018F0AA27BB278827583028F0AB2FB82FF6
:1017280088275850F9CF552329F08695B795A7955E
:101738005A95D9F7502D512572F0CBDF38F46795BB
:10174800F795E795739513F420C0B7DF3EDF5F91F7
:101758000895D8F7FBCFEA1BFB0B680B51F010F488
:101768000094BBDF662392F3EE0FFF1F661F7A9586
:10177800CBF7EE27FF27662777275F910895EFEFCE
:10178800FFEF6FE77FEF5F910895EFEFFFEF6FE7F0
:101798007FE75F9108955F932ADF703851F390389F
:1017A80041F301240894791F23F41CF300203AF331
:1017B800ECCF0F921F932F933F934F93112722271C
:1017C8009927689FA0018F9F302D410D591F6B9F4E
:1017D800300D411D591F8E9F27D0BF9F25D06A9F6E
:1017E80023D0BE9F1DD0AF9F1BD0AE9F110D291FC8
:1017F800391F491F591FE32FF42F652F522F4F917F
:101808003F912F911F910F9066232AF0550FEE1FDD
:10181800FF1F661F02C073954BF2CDDE5F910895DE
:10182800100D211D391F02C0200D311D491F591FE0
:1018380008955F93DCDE703821F411200AF49FCFFD
:10184800A4CF903809F495CF01240894970B1BF482
:10185800D4F30020F3CF792F1F932F933F934F9307
:1018680011241127222733274427552790E2AE1742
:10187800BF078607410730F0AE1BBF0B860B410B35
:10188800089401C08894551F221F331F111CAA1FDA
:10189800BB1F881F441F9A9551F7F901612D4F917D
:1018A8003F912F911F91662332F0550FEE1FFF1FB6
:1018B800661F7A9543F27FDE5F91089599239AF027
:1018C800772342F0971748F029F4AE17BF07860729
:1018D80020F031F098948894089598940894089585
:1018E8001894889408957723C2F7971798F3A9F75F
:1018F800EA17FB07680788F399F3ECCF0024AF0DCC
:10190800B01D0895F195E195F0400895F095609522
:101918007095E195FF4F6F4F7F4F0895FE2FFF0F92
:10192800FF0B6F2F7F2F08956F2F660F660B762F93
:101938000895002498E0AA0F001C0E1A10F40E0E49
:1019480001C0A1609A95B9F7EA2FA02D089551D04A
:10195800F0DF0EF4E19508950024112490E1AA0F18
:10196800BB1F001C111C0E1A1F0A18F40E0E1F1E96
:1019780001C0A1609A9599F7FD01D001089545D05D
:10198800EBDF0EF4BFDF08953F934F935F9300247E
:1019980011244427552730E2AA0FBB1F881F991F1F
:1019A800001C111C441F551F0E1A1F0A460B570B0B
:1019B80028F40E0E1F1E461F571F01C0A1603A953E
:1019C80059F7FD01BC01D001CA015F914F913F91C8
:1019D8000895E894A7FF02C0A1956894E7FDE195F2
:1019E800A8DFEA2F0EF4E1950895CEDFFD01BC01D2
:1019F8000895E894E7FF02C0E1956894A7FF04C042
:101A0800A19500F8039400FA0895E894F7FF02C03E
:101A180079DF6894B7FF06C0A095B095119600F8D5
:101A2800039400FA0895ED91FC9111970895ED91B2
:101A3800FD916D917C9113970895ED93FD936D93AE
:101A48007C930895E881F9816A817B810895A88152
:101A5800B9818A819B810895E883F9836A837B83AE
:101A680008957A936A93FA93EA9308959A938A93D6
:101A7800BA93AA930895182E862F612D192E972FA1
:101A8800712D1B2EBF2FF12D1A2EAE2FE12D08958B
:101A9800309760407040089500240A160B06080627
:101AA800090608955A934A933A932A931A930A93E4
:101AB80008955D814C813B812A81198108810895AF
:00000001FF
